{
  "contractName": "SolnSquareVerifier",
  "abi": [
    {
      "anonymous": false,
      "inputs": [
        {
          "indexed": true,
          "internalType": "address",
          "name": "owner",
          "type": "address"
        },
        {
          "indexed": true,
          "internalType": "address",
          "name": "approved",
          "type": "address"
        },
        {
          "indexed": true,
          "internalType": "uint256",
          "name": "tokenId",
          "type": "uint256"
        }
      ],
      "name": "Approval",
      "type": "event"
    },
    {
      "anonymous": false,
      "inputs": [
        {
          "indexed": true,
          "internalType": "address",
          "name": "owner",
          "type": "address"
        },
        {
          "indexed": true,
          "internalType": "address",
          "name": "operator",
          "type": "address"
        },
        {
          "indexed": false,
          "internalType": "bool",
          "name": "approved",
          "type": "bool"
        }
      ],
      "name": "ApprovalForAll",
      "type": "event"
    },
    {
      "anonymous": false,
      "inputs": [
        {
          "indexed": false,
          "internalType": "address",
          "name": "addr",
          "type": "address"
        }
      ],
      "name": "OwnerShipTransferred",
      "type": "event"
    },
    {
      "anonymous": false,
      "inputs": [],
      "name": "Paused",
      "type": "event"
    },
    {
      "anonymous": false,
      "inputs": [
        {
          "indexed": false,
          "internalType": "uint256",
          "name": "index",
          "type": "uint256"
        },
        {
          "indexed": false,
          "internalType": "address",
          "name": "addr",
          "type": "address"
        }
      ],
      "name": "SolutionAdded",
      "type": "event"
    },
    {
      "anonymous": false,
      "inputs": [
        {
          "indexed": true,
          "internalType": "address",
          "name": "from",
          "type": "address"
        },
        {
          "indexed": true,
          "internalType": "address",
          "name": "to",
          "type": "address"
        },
        {
          "indexed": true,
          "internalType": "uint256",
          "name": "tokenId",
          "type": "uint256"
        }
      ],
      "name": "Transfer",
      "type": "event"
    },
    {
      "anonymous": false,
      "inputs": [],
      "name": "Unpaused",
      "type": "event"
    },
    {
      "constant": false,
      "inputs": [
        {
          "internalType": "bytes32",
          "name": "_myid",
          "type": "bytes32"
        },
        {
          "internalType": "string",
          "name": "_result",
          "type": "string"
        }
      ],
      "name": "__callback",
      "outputs": [],
      "payable": false,
      "stateMutability": "nonpayable",
      "type": "function"
    },
    {
      "constant": false,
      "inputs": [
        {
          "internalType": "bytes32",
          "name": "_myid",
          "type": "bytes32"
        },
        {
          "internalType": "string",
          "name": "_result",
          "type": "string"
        },
        {
          "internalType": "bytes",
          "name": "_proof",
          "type": "bytes"
        }
      ],
      "name": "__callback",
      "outputs": [],
      "payable": false,
      "stateMutability": "nonpayable",
      "type": "function"
    },
    {
      "constant": false,
      "inputs": [
        {
          "internalType": "address",
          "name": "to",
          "type": "address"
        },
        {
          "internalType": "uint256",
          "name": "tokenId",
          "type": "uint256"
        }
      ],
      "name": "approve",
      "outputs": [],
      "payable": false,
      "stateMutability": "nonpayable",
      "type": "function"
    },
    {
      "constant": true,
      "inputs": [
        {
          "internalType": "address",
          "name": "owner",
          "type": "address"
        }
      ],
      "name": "balanceOf",
      "outputs": [
        {
          "internalType": "uint256",
          "name": "",
          "type": "uint256"
        }
      ],
      "payable": false,
      "stateMutability": "view",
      "type": "function"
    },
    {
      "constant": true,
      "inputs": [],
      "name": "baseTokenURI",
      "outputs": [
        {
          "internalType": "string",
          "name": "",
          "type": "string"
        }
      ],
      "payable": false,
      "stateMutability": "view",
      "type": "function"
    },
    {
      "constant": true,
      "inputs": [
        {
          "internalType": "uint256",
          "name": "tokenId",
          "type": "uint256"
        }
      ],
      "name": "getApproved",
      "outputs": [
        {
          "internalType": "address",
          "name": "",
          "type": "address"
        }
      ],
      "payable": false,
      "stateMutability": "view",
      "type": "function"
    },
    {
      "constant": false,
      "inputs": [],
      "name": "getOwner",
      "outputs": [
        {
          "internalType": "address",
          "name": "",
          "type": "address"
        }
      ],
      "payable": false,
      "stateMutability": "nonpayable",
      "type": "function"
    },
    {
      "constant": true,
      "inputs": [
        {
          "internalType": "address",
          "name": "owner",
          "type": "address"
        },
        {
          "internalType": "address",
          "name": "operator",
          "type": "address"
        }
      ],
      "name": "isApprovedForAll",
      "outputs": [
        {
          "internalType": "bool",
          "name": "",
          "type": "bool"
        }
      ],
      "payable": false,
      "stateMutability": "view",
      "type": "function"
    },
    {
      "constant": true,
      "inputs": [],
      "name": "name",
      "outputs": [
        {
          "internalType": "string",
          "name": "",
          "type": "string"
        }
      ],
      "payable": false,
      "stateMutability": "view",
      "type": "function"
    },
    {
      "constant": true,
      "inputs": [
        {
          "internalType": "uint256",
          "name": "tokenId",
          "type": "uint256"
        }
      ],
      "name": "ownerOf",
      "outputs": [
        {
          "internalType": "address",
          "name": "",
          "type": "address"
        }
      ],
      "payable": false,
      "stateMutability": "view",
      "type": "function"
    },
    {
      "constant": false,
      "inputs": [
        {
          "internalType": "address",
          "name": "from",
          "type": "address"
        },
        {
          "internalType": "address",
          "name": "to",
          "type": "address"
        },
        {
          "internalType": "uint256",
          "name": "tokenId",
          "type": "uint256"
        }
      ],
      "name": "safeTransferFrom",
      "outputs": [],
      "payable": false,
      "stateMutability": "nonpayable",
      "type": "function"
    },
    {
      "constant": false,
      "inputs": [
        {
          "internalType": "address",
          "name": "from",
          "type": "address"
        },
        {
          "internalType": "address",
          "name": "to",
          "type": "address"
        },
        {
          "internalType": "uint256",
          "name": "tokenId",
          "type": "uint256"
        },
        {
          "internalType": "bytes",
          "name": "_data",
          "type": "bytes"
        }
      ],
      "name": "safeTransferFrom",
      "outputs": [],
      "payable": false,
      "stateMutability": "nonpayable",
      "type": "function"
    },
    {
      "constant": false,
      "inputs": [
        {
          "internalType": "address",
          "name": "to",
          "type": "address"
        },
        {
          "internalType": "bool",
          "name": "approved",
          "type": "bool"
        }
      ],
      "name": "setApprovalForAll",
      "outputs": [],
      "payable": false,
      "stateMutability": "nonpayable",
      "type": "function"
    },
    {
      "constant": false,
      "inputs": [
        {
          "internalType": "bool",
          "name": "pause",
          "type": "bool"
        }
      ],
      "name": "setPause",
      "outputs": [],
      "payable": false,
      "stateMutability": "nonpayable",
      "type": "function"
    },
    {
      "constant": true,
      "inputs": [
        {
          "internalType": "bytes4",
          "name": "interfaceId",
          "type": "bytes4"
        }
      ],
      "name": "supportsInterface",
      "outputs": [
        {
          "internalType": "bool",
          "name": "",
          "type": "bool"
        }
      ],
      "payable": false,
      "stateMutability": "view",
      "type": "function"
    },
    {
      "constant": true,
      "inputs": [],
      "name": "symbol",
      "outputs": [
        {
          "internalType": "string",
          "name": "",
          "type": "string"
        }
      ],
      "payable": false,
      "stateMutability": "view",
      "type": "function"
    },
    {
      "constant": true,
      "inputs": [
        {
          "internalType": "uint256",
          "name": "index",
          "type": "uint256"
        }
      ],
      "name": "tokenByIndex",
      "outputs": [
        {
          "internalType": "uint256",
          "name": "",
          "type": "uint256"
        }
      ],
      "payable": false,
      "stateMutability": "view",
      "type": "function"
    },
    {
      "constant": true,
      "inputs": [
        {
          "internalType": "address",
          "name": "owner",
          "type": "address"
        },
        {
          "internalType": "uint256",
          "name": "index",
          "type": "uint256"
        }
      ],
      "name": "tokenOfOwnerByIndex",
      "outputs": [
        {
          "internalType": "uint256",
          "name": "",
          "type": "uint256"
        }
      ],
      "payable": false,
      "stateMutability": "view",
      "type": "function"
    },
    {
      "constant": true,
      "inputs": [
        {
          "internalType": "uint256",
          "name": "tokenId",
          "type": "uint256"
        }
      ],
      "name": "tokenURI",
      "outputs": [
        {
          "internalType": "string",
          "name": "",
          "type": "string"
        }
      ],
      "payable": false,
      "stateMutability": "view",
      "type": "function"
    },
    {
      "constant": true,
      "inputs": [],
      "name": "totalSupply",
      "outputs": [
        {
          "internalType": "uint256",
          "name": "",
          "type": "uint256"
        }
      ],
      "payable": false,
      "stateMutability": "view",
      "type": "function"
    },
    {
      "constant": false,
      "inputs": [
        {
          "internalType": "address",
          "name": "from",
          "type": "address"
        },
        {
          "internalType": "address",
          "name": "to",
          "type": "address"
        },
        {
          "internalType": "uint256",
          "name": "tokenId",
          "type": "uint256"
        }
      ],
      "name": "transferFrom",
      "outputs": [],
      "payable": false,
      "stateMutability": "nonpayable",
      "type": "function"
    },
    {
      "constant": false,
      "inputs": [
        {
          "internalType": "address",
          "name": "newOwner",
          "type": "address"
        }
      ],
      "name": "transferOwnership",
      "outputs": [],
      "payable": false,
      "stateMutability": "nonpayable",
      "type": "function"
    },
    {
      "constant": true,
      "inputs": [
        {
          "internalType": "uint256[2]",
          "name": "a",
          "type": "uint256[2]"
        },
        {
          "internalType": "uint256[2][2]",
          "name": "b",
          "type": "uint256[2][2]"
        },
        {
          "internalType": "uint256[2]",
          "name": "c",
          "type": "uint256[2]"
        },
        {
          "internalType": "uint256[2]",
          "name": "input",
          "type": "uint256[2]"
        }
      ],
      "name": "verifyTx",
      "outputs": [
        {
          "internalType": "bool",
          "name": "r",
          "type": "bool"
        }
      ],
      "payable": false,
      "stateMutability": "view",
      "type": "function"
    },
    {
      "constant": false,
      "inputs": [
        {
          "internalType": "bytes32",
          "name": "key",
          "type": "bytes32"
        },
        {
          "internalType": "address",
          "name": "verifyAddress",
          "type": "address"
        }
      ],
      "name": "solutionAdd",
      "outputs": [],
      "payable": false,
      "stateMutability": "nonpayable",
      "type": "function"
    },
    {
      "constant": false,
      "inputs": [
        {
          "internalType": "address",
          "name": "to",
          "type": "address"
        },
        {
          "internalType": "uint256",
          "name": "tokenId",
          "type": "uint256"
        }
      ],
      "name": "mint",
      "outputs": [
        {
          "internalType": "bool",
          "name": "",
          "type": "bool"
        }
      ],
      "payable": false,
      "stateMutability": "nonpayable",
      "type": "function"
    },
    {
      "constant": false,
      "inputs": [
        {
          "internalType": "address",
          "name": "to",
          "type": "address"
        },
        {
          "internalType": "uint256",
          "name": "tokenId",
          "type": "uint256"
        },
        {
          "internalType": "uint256[2]",
          "name": "a",
          "type": "uint256[2]"
        },
        {
          "internalType": "uint256[2][2]",
          "name": "b",
          "type": "uint256[2][2]"
        },
        {
          "internalType": "uint256[2]",
          "name": "c",
          "type": "uint256[2]"
        },
        {
          "internalType": "uint256[2]",
          "name": "inputs",
          "type": "uint256[2]"
        }
      ],
      "name": "mint",
      "outputs": [],
      "payable": false,
      "stateMutability": "nonpayable",
      "type": "function"
    }
  ],
  "bytecode": "0x60806040526040518060400160405280600b81526020017f437573746f6d546f6b656e0000000000000000000000000000000000000000008152506040518060400160405280600281526020017f43430000000000000000000000000000000000000000000000000000000000008152506040518060600160405280603f81526020016200471c603f9139336000806101000a81548173ffffffffffffffffffffffffffffffffffffffff021916908373ffffffffffffffffffffffffffffffffffffffff1602179055507f143e5287faad4318baa07178f135451e874bf0ab18ac3e5fe90d52756dc8e3d56000809054906101000a900473ffffffffffffffffffffffffffffffffffffffff16604051808273ffffffffffffffffffffffffffffffffffffffff1673ffffffffffffffffffffffffffffffffffffffff16815260200191505060405180910390a160008060146101000a81548160ff021916908315150217905550620001806301ffc9a760e01b6200021c60201b60201c565b620001986380ac58cd60e01b6200021c60201b60201c565b620001b063780e9d6360e01b6200021c60201b60201c565b82600f9080519060200190620001c8929190620002bc565b508160109080519060200190620001e1929190620002bc565b508060119080519060200190620001fa929190620002bc565b5062000213635b5e139f60e01b6200021c60201b60201c565b5050506200036b565b63ffffffff60e01b817bffffffffffffffffffffffffffffffffffffffffffffffffffffffff191614156200025057600080fd5b6001806000837bffffffffffffffffffffffffffffffffffffffffffffffffffffffff19167bffffffffffffffffffffffffffffffffffffffffffffffffffffffff1916815260200190815260200160002060006101000a81548160ff02191690831515021790555050565b828054600181600116156101000203166002900490600052602060002090601f016020900481019282601f10620002ff57805160ff191683800117855562000330565b8280016001018555821562000330579182015b828111156200032f57825182559160200191906001019062000312565b5b5090506200033f919062000343565b5090565b6200036891905b80821115620003645760008160009055506001016200034a565b5090565b90565b6143a1806200037b6000396000f3fe608060405234801561001057600080fd5b506004361061018e5760003560e01c8063621e9ec0116100de578063b88d4fde11610097578063d547cfb711610071578063d547cfb714610ce2578063e985e9c514610d65578063f2fde38b14610de1578063fec6cfb914610e255761018e565b8063b88d4fde14610b06578063bedb86fb14610c0b578063c87b56dd14610c3b5761018e565b8063621e9ec0146107aa5780636352211e1461092357806370a0823114610991578063893d20e8146109e957806395d89b4114610a33578063a22cb46514610ab65761018e565b806327dc297e1161014b57806340c10f191161012557806340c10f191461064657806342842e0e146106ac5780634f6ccce71461071a578063618a9c561461075c5761018e565b806327dc297e146103c35780632f745c591461048857806338bbfa50146104ea5761018e565b806301ffc9a71461019357806306fdde03146101f8578063081812fc1461027b578063095ea7b3146102e957806318160ddd1461033757806323b872dd14610355575b600080fd5b6101de600480360360208110156101a957600080fd5b8101908080357bffffffffffffffffffffffffffffffffffffffffffffffffffffffff19169060200190929190505050610fb0565b604051808215151515815260200191505060405180910390f35b610200611018565b6040518080602001828103825283818151815260200191508051906020019080838360005b83811015610240578082015181840152602081019050610225565b50505050905090810190601f16801561026d5780820380516001836020036101000a031916815260200191505b509250505060405180910390f35b6102a76004803603602081101561029157600080fd5b81019080803590602001909291905050506110ba565b604051808273ffffffffffffffffffffffffffffffffffffffff1673ffffffffffffffffffffffffffffffffffffffff16815260200191505060405180910390f35b610335600480360360408110156102ff57600080fd5b81019080803573ffffffffffffffffffffffffffffffffffffffff16906020019092919080359060200190929190505050611172565b005b61033f611354565b6040518082815260200191505060405180910390f35b6103c16004803603606081101561036b57600080fd5b81019080803573ffffffffffffffffffffffffffffffffffffffff169060200190929190803573ffffffffffffffffffffffffffffffffffffffff16906020019092919080359060200190929190505050611361565b005b610486600480360360408110156103d957600080fd5b81019080803590602001909291908035906020019064010000000081111561040057600080fd5b82018360208201111561041257600080fd5b8035906020019184600183028401116401000000008311171561043457600080fd5b91908080601f016020809104026020016040519081016040528093929190818152602001838380828437600081840152601f19601f820116905080830192505050505050509192919290505050611384565b005b6104d46004803603604081101561049e57600080fd5b81019080803573ffffffffffffffffffffffffffffffffffffffff169060200190929190803590602001909291905050506113c7565b6040518082815260200191505060405180910390f35b6106446004803603606081101561050057600080fd5b81019080803590602001909291908035906020019064010000000081111561052757600080fd5b82018360208201111561053957600080fd5b8035906020019184600183028401116401000000008311171561055b57600080fd5b91908080601f016020809104026020016040519081016040528093929190818152602001838380828437600081840152601f19601f820116905080830192505050505050509192919290803590602001906401000000008111156105be57600080fd5b8201836020820111156105d057600080fd5b803590602001918460018302840111640100000000831117156105f257600080fd5b91908080601f016020809104026020016040519081016040528093929190818152602001838380828437600081840152601f19601f82011690508083019250505050505050919291929050505061143a565b005b6106926004803603604081101561065c57600080fd5b81019080803573ffffffffffffffffffffffffffffffffffffffff1690602001909291908035906020019092919050505061143f565b604051808215151515815260200191505060405180910390f35b610718600480360360608110156106c257600080fd5b81019080803573ffffffffffffffffffffffffffffffffffffffff169060200190929190803573ffffffffffffffffffffffffffffffffffffffff16906020019092919080359060200190929190505050611538565b005b6107466004803603602081101561073057600080fd5b8101908080359060200190929190505050611558565b6040518082815260200191505060405180910390f35b6107a86004803603604081101561077257600080fd5b8101908080359060200190929190803573ffffffffffffffffffffffffffffffffffffffff16906020019092919050505061158c565b005b61090960048036036101408110156107c157600080fd5b8101908080604001906002806020026040519081016040528092919082600260200280828437600081840152601f19601f82011690508083019250505050505091929192908060800190600280602002604051908101604052809291906000905b82821015610876578382604002016002806020026040519081016040528092919082600260200280828437600081840152601f19601f82011690508083019250505050505081526020019060010190610822565b50505050919291929080604001906002806020026040519081016040528092919082600260200280828437600081840152601f19601f820116905080830192505050505050919291929080604001906002806020026040519081016040528092919082600260200280828437600081840152601f19601f8201169050808301925050505050509192919290505050611806565b604051808215151515815260200191505060405180910390f35b61094f6004803603602081101561093957600080fd5b8101908080359060200190929190505050611a02565b604051808273ffffffffffffffffffffffffffffffffffffffff1673ffffffffffffffffffffffffffffffffffffffff16815260200191505060405180910390f35b6109d3600480360360208110156109a757600080fd5b81019080803573ffffffffffffffffffffffffffffffffffffffff169060200190929190505050611a3f565b6040518082815260200191505060405180910390f35b6109f1611a8f565b604051808273ffffffffffffffffffffffffffffffffffffffff1673ffffffffffffffffffffffffffffffffffffffff16815260200191505060405180910390f35b610a3b611ab8565b6040518080602001828103825283818151815260200191508051906020019080838360005b83811015610a7b578082015181840152602081019050610a60565b50505050905090810190601f168015610aa85780820380516001836020036101000a031916815260200191505b509250505060405180910390f35b610b0460048036036040811015610acc57600080fd5b81019080803573ffffffffffffffffffffffffffffffffffffffff169060200190929190803515159060200190929190505050611b5a565b005b610c0960048036036080811015610b1c57600080fd5b81019080803573ffffffffffffffffffffffffffffffffffffffff169060200190929190803573ffffffffffffffffffffffffffffffffffffffff1690602001909291908035906020019092919080359060200190640100000000811115610b8357600080fd5b820183602082011115610b9557600080fd5b80359060200191846001830284011164010000000083111715610bb757600080fd5b91908080601f016020809104026020016040519081016040528093929190818152602001838380828437600081840152601f19601f820116905080830192505050505050509192919290505050611c94565b005b610c3960048036036020811015610c2157600080fd5b81019080803515159060200190929190505050611cba565b005b610c6760048036036020811015610c5157600080fd5b8101908080359060200190929190505050611e0c565b6040518080602001828103825283818151815260200191508051906020019080838360005b83811015610ca7578082015181840152602081019050610c8c565b50505050905090810190601f168015610cd45780820380516001836020036101000a031916815260200191505b509250505060405180910390f35b610cea611ed3565b6040518080602001828103825283818151815260200191508051906020019080838360005b83811015610d2a578082015181840152602081019050610d0f565b50505050905090810190601f168015610d575780820380516001836020036101000a031916815260200191505b509250505060405180910390f35b610dc760048036036040811015610d7b57600080fd5b81019080803573ffffffffffffffffffffffffffffffffffffffff169060200190929190803573ffffffffffffffffffffffffffffffffffffffff169060200190929190505050611f75565b604051808215151515815260200191505060405180910390f35b610e2360048036036020811015610df757600080fd5b81019080803573ffffffffffffffffffffffffffffffffffffffff169060200190929190505050612009565b005b610fae6004803603610180811015610e3c57600080fd5b81019080803573ffffffffffffffffffffffffffffffffffffffff1690602001909291908035906020019092919080604001906002806020026040519081016040528092919082600260200280828437600081840152601f19601f82011690508083019250505050505091929192908060800190600280602002604051908101604052809291906000905b82821015610f1b578382604002016002806020026040519081016040528092919082600260200280828437600081840152601f19601f82011690508083019250505050505081526020019060010190610ec7565b50505050919291929080604001906002806020026040519081016040528092919082600260200280828437600081840152601f19601f820116905080830192505050505050919291929080604001906002806020026040519081016040528092919082600260200280828437600081840152601f19601f8201169050808301925050505050509192919290505050612214565b005b600060016000837bffffffffffffffffffffffffffffffffffffffffffffffffffffffff19167bffffffffffffffffffffffffffffffffffffffffffffffffffffffff1916815260200190815260200160002060009054906101000a900460ff169050919050565b6060600f8054600181600116156101000203166002900480601f0160208091040260200160405190810160405280929190818152602001828054600181600116156101000203166002900480156110b05780601f10611085576101008083540402835291602001916110b0565b820191906000526020600020905b81548152906001019060200180831161109357829003601f168201915b5050505050905090565b60006110c5826123be565b611137576040517f08c379a00000000000000000000000000000000000000000000000000000000081526004018080602001828103825260178152602001807f417070726f76616c20646f6573206e6f7420657869737400000000000000000081525060200191505060405180910390fd5b6003600083815260200190815260200160002060009054906101000a900473ffffffffffffffffffffffffffffffffffffffff169050919050565b61117b81611a02565b73ffffffffffffffffffffffffffffffffffffffff168273ffffffffffffffffffffffffffffffffffffffff1614156111ff576040517f08c379a00000000000000000000000000000000000000000000000000000000081526004018080602001828103825260288152602001806143456028913960400191505060405180910390fd5b611207611a8f565b73ffffffffffffffffffffffffffffffffffffffff163373ffffffffffffffffffffffffffffffffffffffff16148061124657506112453383611f75565b5b61129b576040517f08c379a00000000000000000000000000000000000000000000000000000000081526004018080602001828103825260228152602001806142fe6022913960400191505060405180910390fd5b816003600083815260200190815260200160002060006101000a81548173ffffffffffffffffffffffffffffffffffffffff021916908373ffffffffffffffffffffffffffffffffffffffff160217905550808273ffffffffffffffffffffffffffffffffffffffff1661130e83611a02565b73ffffffffffffffffffffffffffffffffffffffff167f8c5be1e5ebec7d5bd14f71427d1e84f3dd0314c0f7b2291e5b200ac8c7c3b92560405160405180910390a45050565b6000600880549050905090565b61136b3382612430565b61137457600080fd5b61137f8383836124c5565b505050565b6113c3828260006040519080825280601f01601f1916602001820160405280156113bd5781602001600182028038833980820191505090505b5061143a565b5050565b60006113d283611a3f565b82106113dd57600080fd5b600660008473ffffffffffffffffffffffffffffffffffffffff1673ffffffffffffffffffffffffffffffffffffffff168152602001908152602001600020828154811061142757fe5b9060005260206000200154905092915050565b505050565b60008060009054906101000a900473ffffffffffffffffffffffffffffffffffffffff1673ffffffffffffffffffffffffffffffffffffffff163373ffffffffffffffffffffffffffffffffffffffff1614611503576040517f08c379a00000000000000000000000000000000000000000000000000000000081526004018080602001828103825260188152602001807f4d757374206265206f776e657220746f2065786563757465000000000000000081525060200191505060405180910390fd5b61150d83836124e9565b6115168261250a565b61151f826123be565b1561152d5760019050611532565b600090505b92915050565b61155383838360405180602001604052806000815250611c94565b505050565b6000611562611354565b821061156d57600080fd5b6008828154811061157a57fe5b90600052602060002001549050919050565b816014600082815260200190815260200160002060010160149054906101000a900460ff1615611624576040517f08c379a00000000000000000000000000000000000000000000000000000000081526004018080602001828103825260118152602001807f546865206b657920697320756e6971756500000000000000000000000000000081525060200191505060405180910390fd5b61162c614097565b604051806060016040528060138054905081526020018473ffffffffffffffffffffffffffffffffffffffff168152602001600115158152509050601381908060018154018082558091505090600182039060005260206000209060020201600090919290919091506000820151816000015560208201518160010160006101000a81548173ffffffffffffffffffffffffffffffffffffffff021916908373ffffffffffffffffffffffffffffffffffffffff16021790555060408201518160010160146101000a81548160ff02191690831515021790555050505080601460008681526020019081526020016000206000820151816000015560208201518160010160006101000a81548173ffffffffffffffffffffffffffffffffffffffff021916908373ffffffffffffffffffffffffffffffffffffffff16021790555060408201518160010160146101000a81548160ff0219169083151502179055509050507f078793128cefb19aac38a33f9e5df39f67716907f6d747e8065545699e0b2b8d816000015184604051808381526020018273ffffffffffffffffffffffffffffffffffffffff1673ffffffffffffffffffffffffffffffffffffffff1681526020019250505060405180910390a150505050565b60006118106140d0565b60405180604001604052808760006002811061182857fe5b602002015181526020018760016002811061183f57fe5b60200201518152508160000181905250604051806040016040528060405180604001604052808860006002811061187257fe5b602002015160006002811061188357fe5b602002015181526020018860006002811061189a57fe5b60200201516001600281106118ab57fe5b602002015181525081526020016040518060400160405280886001600281106118d057fe5b60200201516000600281106118e157fe5b60200201518152602001886001600281106118f857fe5b602002015160016002811061190957fe5b6020020151815250815250816020018190525060405180604001604052808560006002811061193457fe5b602002015181526020018560016002811061194b57fe5b602002015181525081604001819052506060600260405190808252806020026020018201604052801561198d5781602001602082028038833980820191505090505b50905060008090505b60028110156119d5578481600281106119ab57fe5b60200201518282815181106119bc57fe5b6020026020010181815250508080600101915050611996565b5060006119e282846125f8565b14156119f3576001925050506119fa565b6000925050505b949350505050565b60006002600083815260200190815260200160002060009054906101000a900473ffffffffffffffffffffffffffffffffffffffff169050919050565b6000611a88600460008473ffffffffffffffffffffffffffffffffffffffff1673ffffffffffffffffffffffffffffffffffffffff16815260200190815260200160002061276a565b9050919050565b60008060009054906101000a900473ffffffffffffffffffffffffffffffffffffffff16905090565b606060108054600181600116156101000203166002900480601f016020809104026020016040519081016040528092919081815260200182805460018160011615610100020316600290048015611b505780601f10611b2557610100808354040283529160200191611b50565b820191906000526020600020905b815481529060010190602001808311611b3357829003601f168201915b5050505050905090565b3373ffffffffffffffffffffffffffffffffffffffff168273ffffffffffffffffffffffffffffffffffffffff161415611b9357600080fd5b80600560003373ffffffffffffffffffffffffffffffffffffffff1673ffffffffffffffffffffffffffffffffffffffff16815260200190815260200160002060008473ffffffffffffffffffffffffffffffffffffffff1673ffffffffffffffffffffffffffffffffffffffff16815260200190815260200160002060006101000a81548160ff0219169083151502179055508173ffffffffffffffffffffffffffffffffffffffff163373ffffffffffffffffffffffffffffffffffffffff167f17307eab39ab6107e8899845ad3d59bd9653f200f220920489ca2b5937696c3183604051808215151515815260200191505060405180910390a35050565b611c9f848484611361565b611cab84848484612778565b611cb457600080fd5b50505050565b6000809054906101000a900473ffffffffffffffffffffffffffffffffffffffff1673ffffffffffffffffffffffffffffffffffffffff163373ffffffffffffffffffffffffffffffffffffffff1614611d7c576040517f08c379a00000000000000000000000000000000000000000000000000000000081526004018080602001828103825260188152602001807f4d757374206265206f776e657220746f2065786563757465000000000000000081525060200191505060405180910390fd5b80600060146101000a81548160ff021916908315150217905550600060149054906101000a900460ff1615611ddc577f9e87fac88ff661f02d44f95383c817fece4bce600a3dab7a54406878b965e75260405160405180910390a1611e09565b7fa45f47fdea8a1efdd9029a5691c7f759c32b7c698632b563573e155625d1693360405160405180910390a15b50565b6060611e17826123be565b611e2057600080fd5b601260008381526020019081526020016000208054600181600116156101000203166002900480601f016020809104026020016040519081016040528092919081815260200182805460018160011615610100020316600290048015611ec75780601f10611e9c57610100808354040283529160200191611ec7565b820191906000526020600020905b815481529060010190602001808311611eaa57829003601f168201915b50505050509050919050565b606060118054600181600116156101000203166002900480601f016020809104026020016040519081016040528092919081815260200182805460018160011615610100020316600290048015611f6b5780601f10611f4057610100808354040283529160200191611f6b565b820191906000526020600020905b815481529060010190602001808311611f4e57829003601f168201915b5050505050905090565b6000600560008473ffffffffffffffffffffffffffffffffffffffff1673ffffffffffffffffffffffffffffffffffffffff16815260200190815260200160002060008373ffffffffffffffffffffffffffffffffffffffff1673ffffffffffffffffffffffffffffffffffffffff16815260200190815260200160002060009054906101000a900460ff16905092915050565b6000809054906101000a900473ffffffffffffffffffffffffffffffffffffffff1673ffffffffffffffffffffffffffffffffffffffff163373ffffffffffffffffffffffffffffffffffffffff16146120cb576040517f08c379a00000000000000000000000000000000000000000000000000000000081526004018080602001828103825260188152602001807f4d757374206265206f776e657220746f2065786563757465000000000000000081525060200191505060405180910390fd5b808073ffffffffffffffffffffffffffffffffffffffff168173ffffffffffffffffffffffffffffffffffffffff161461216d576040517f08c379a00000000000000000000000000000000000000000000000000000000081526004018080602001828103825260168152602001807f4d75737420626520612076616c6964206164647265730000000000000000000081525060200191505060405180910390fd5b816000806101000a81548173ffffffffffffffffffffffffffffffffffffffff021916908373ffffffffffffffffffffffffffffffffffffffff1602179055507f143e5287faad4318baa07178f135451e874bf0ab18ac3e5fe90d52756dc8e3d582604051808273ffffffffffffffffffffffffffffffffffffffff1673ffffffffffffffffffffffffffffffffffffffff16815260200191505060405180910390a15050565b8383838361222484848484611806565b612296576040517f08c379a00000000000000000000000000000000000000000000000000000000081526004018080602001828103825260168152602001807f545820766572696669636174696f6e204661696c65640000000000000000000081525060200191505060405180910390fd5b6000888888886040516020018085600260200280838360005b838110156122ca5780820151818401526020810190506122af565b505050509050018460026000925b8184101561231e5782846020020151600260200280838360005b8381101561230d5780820151818401526020810190506122f2565b5050505090500192600101926122d8565b9250505083600260200280838360005b8381101561234957808201518184015260208101905061232e565b5050505090500182600260200280838360005b8381101561237757808201518184015260208101905061235c565b505050509050019450505050506040516020818303038152906040528051906020012090506123a6813361158c565b6123b08b8b61143f565b505050505050505050505050565b6000806002600084815260200190815260200160002060009054906101000a900473ffffffffffffffffffffffffffffffffffffffff169050600073ffffffffffffffffffffffffffffffffffffffff168173ffffffffffffffffffffffffffffffffffffffff161415915050919050565b60008061243c83611a02565b90508073ffffffffffffffffffffffffffffffffffffffff168473ffffffffffffffffffffffffffffffffffffffff1614806124ab57508373ffffffffffffffffffffffffffffffffffffffff16612493846110ba565b73ffffffffffffffffffffffffffffffffffffffff16145b806124bc57506124bb8185611f75565b5b91505092915050565b6124d0838383612961565b6124da8382612bf6565b6124e48282612d94565b505050565b6124f38282612e5b565b6124fd8282612d94565b61250681612fea565b5050565b612513816123be565b61251c57600080fd5b60606125ca60118054600181600116156101000203166002900480601f0160208091040260200160405190810160405280929190818152602001828054600181600116156101000203166002900480156125b75780601f1061258c576101008083540402835291602001916125b7565b820191906000526020600020905b81548152906001019060200180831161259a57829003601f168201915b50505050506125c584613036565b613163565b9050806012600084815260200190815260200160002090805190602001906125f3929190614103565b505050565b6000807f30644e72e131a029b85045b68181585d2833e84879b9709143e1f593f00000019050612626614183565b61262e6131a7565b905080608001515160018651011461264557600080fd5b61264d6141ca565b6040518060400160405280600081526020016000815250905060008090505b86518110156126e3578387828151811061268257fe5b60200260200101511061269457600080fd5b6126d4826126cf856080015160018501815181106126ae57fe5b60200260200101518a85815181106126c257fe5b60200260200101516135f5565b613687565b9150808060010191505061266c565b506127068183608001516000815181106126f957fe5b6020026020010151613687565b905061274c8560000151866020015161271e84613738565b85604001516127308a60400151613738565b87606001516127428960000151613738565b89602001516137d2565b61275c5760019350505050612764565b600093505050505b92915050565b600081600001549050919050565b60006127998473ffffffffffffffffffffffffffffffffffffffff16613936565b6127a65760019050612959565b60008473ffffffffffffffffffffffffffffffffffffffff1663150b7a02338887876040518563ffffffff1660e01b8152600401808573ffffffffffffffffffffffffffffffffffffffff1673ffffffffffffffffffffffffffffffffffffffff1681526020018473ffffffffffffffffffffffffffffffffffffffff1673ffffffffffffffffffffffffffffffffffffffff16815260200183815260200180602001828103825283818151815260200191508051906020019080838360005b83811015612881578082015181840152602081019050612866565b50505050905090810190601f1680156128ae5780820380516001836020036101000a031916815260200191505b5095505050505050602060405180830381600087803b1580156128d057600080fd5b505af11580156128e4573d6000803e3d6000fd5b505050506040513d60208110156128fa57600080fd5b8101908080519060200190929190505050905063150b7a0260e01b7bffffffffffffffffffffffffffffffffffffffffffffffffffffffff1916817bffffffffffffffffffffffffffffffffffffffffffffffffffffffff1916149150505b949350505050565b8273ffffffffffffffffffffffffffffffffffffffff1661298182611a02565b73ffffffffffffffffffffffffffffffffffffffff1614612a0a576040517f08c379a00000000000000000000000000000000000000000000000000000000081526004018080602001828103825260208152602001807f546f6b656e206973206e6f74206f776e6564206279207468652073656e64657281525060200191505060405180910390fd5b600073ffffffffffffffffffffffffffffffffffffffff168273ffffffffffffffffffffffffffffffffffffffff161415612aad576040517f08c379a00000000000000000000000000000000000000000000000000000000081526004018080602001828103825260178152602001807f546f2061646472657373206973206e6f742076616c696400000000000000000081525060200191505060405180910390fd5b612ab681613981565b612afd600460008573ffffffffffffffffffffffffffffffffffffffff1673ffffffffffffffffffffffffffffffffffffffff168152602001908152602001600020613a3f565b612b44600460008473ffffffffffffffffffffffffffffffffffffffff1673ffffffffffffffffffffffffffffffffffffffff168152602001908152602001600020613a62565b816002600083815260200190815260200160002060006101000a81548173ffffffffffffffffffffffffffffffffffffffff021916908373ffffffffffffffffffffffffffffffffffffffff160217905550808273ffffffffffffffffffffffffffffffffffffffff168473ffffffffffffffffffffffffffffffffffffffff167fddf252ad1be2c89b69c2b068fc378daa952ba7f163c4a11628f55a4df523b3ef60405160405180910390a4505050565b6000612c4e6001600660008673ffffffffffffffffffffffffffffffffffffffff1673ffffffffffffffffffffffffffffffffffffffff16815260200190815260200160002080549050613a7890919063ffffffff16565b9050600060076000848152602001908152602001600020549050818114612d3b576000600660008673ffffffffffffffffffffffffffffffffffffffff1673ffffffffffffffffffffffffffffffffffffffff1681526020019081526020016000208381548110612cbb57fe5b9060005260206000200154905080600660008773ffffffffffffffffffffffffffffffffffffffff1673ffffffffffffffffffffffffffffffffffffffff1681526020019081526020016000208381548110612d1357fe5b9060005260206000200181905550816007600083815260200190815260200160002081905550505b600660008573ffffffffffffffffffffffffffffffffffffffff1673ffffffffffffffffffffffffffffffffffffffff168152602001908152602001600020805480919060019003612d8d91906141e4565b5050505050565b600660008373ffffffffffffffffffffffffffffffffffffffff1673ffffffffffffffffffffffffffffffffffffffff168152602001908152602001600020805490506007600083815260200190815260200160002081905550600660008373ffffffffffffffffffffffffffffffffffffffff1673ffffffffffffffffffffffffffffffffffffffff1681526020019081526020016000208190806001815401808255809150509060018203906000526020600020016000909192909190915055505050565b612e64816123be565b80612e9c5750600073ffffffffffffffffffffffffffffffffffffffff168273ffffffffffffffffffffffffffffffffffffffff1614155b15612ef2576040517f08c379a00000000000000000000000000000000000000000000000000000000081526004018080602001828103825260258152602001806143206025913960400191505060405180910390fd5b816002600083815260200190815260200160002060006101000a81548173ffffffffffffffffffffffffffffffffffffffff021916908373ffffffffffffffffffffffffffffffffffffffff160217905550612f8b600460008473ffffffffffffffffffffffffffffffffffffffff1673ffffffffffffffffffffffffffffffffffffffff168152602001908152602001600020613a62565b808273ffffffffffffffffffffffffffffffffffffffff163373ffffffffffffffffffffffffffffffffffffffff167fddf252ad1be2c89b69c2b068fc378daa952ba7f163c4a11628f55a4df523b3ef60405160405180910390a45050565b6008805490506009600083815260200190815260200160002081905550600881908060018154018082558091505090600182039060005260206000200160009091929091909150555050565b6060600082141561307e576040518060400160405280600181526020017f3000000000000000000000000000000000000000000000000000000000000000815250905061315e565b600082905060005b600082146130a8578080600101915050600a82816130a057fe5b049150613086565b6060816040519080825280601f01601f1916602001820160405280156130dd5781602001600182028038833980820191505090505b50905060006001830390505b6000861461315657600a86816130fb57fe5b0660300160f81b8282806001900393508151811061311557fe5b60200101907effffffffffffffffffffffffffffffffffffffffffffffffffffffffffffff1916908160001a905350600a868161314e57fe5b0495506130e9565b819450505050505b919050565b606061319f8383604051806020016040528060008152506040518060200160405280600081525060405180602001604052806000815250613ac2565b905092915050565b6131af614183565b60405180604001604052807f1c186d789ca2b33edbf3292b5a6898c8d4d08fe9a7ead72645f96cb00b93d96481526020017f2d6addb431d78df1767a38aaa3ef4f9d88d450c28f9bc56d9b650915e097a2888152508160000181905250604051806040016040528060405180604001604052807f2d2dc18f2d806b4c53923f2105d2fb9bfc2aba7fdc3b69cd674251eecbb4658b81526020017f1921e90d3fb095f1990f852f14ebbedb976d474a24584cbc210ea1804324aab3815250815260200160405180604001604052807f219dad3aecb7e9b156d0a36933410051d2fa7faaa4b65b56eb0eb58419bfa0ad81526020017f2b727ef964619ac08b9854368bdfb4fc28e8b5565fd3bbe1552cd555b06e2e9d8152508152508160200181905250604051806040016040528060405180604001604052807f0aa7da165580cbb9856ca1f377034c47da559378d5a7e8e2b2076105bf64694f81526020017f257b63d564dee321dc64bb85b18c83e9c091c0a608532025a0e4f0a76fad6f46815250815260200160405180604001604052807f292f74909d644de2b8ed5f9b74785b21647404397369ca071ef6e829345f4ef481526020017f2fdd384aec1451f1dfae25dbdff8a252c29f07bd975d485b34f9cb0eb296df548152508152508160400181905250604051806040016040528060405180604001604052807f1a57349d7a2cead97e209da8759135db9b6ee28cd6e61d4c11adb3f671421cde81526020017f29f0050dd5f05e01819aa5fd26a4fc4d1f59d476bf44d49c27f2f2c7fb892453815250815260200160405180604001604052807f0fe0878a1d1053ad2c8ce41132695fa15d4ccde85753f7d7673042a14e581bf981526020017f2350d371171c309e7782617c40c6137315e21ac348990a8163e90089ad051ee98152508152508160600181905250600360405190808252806020026020018201604052801561349657816020015b613483614210565b81526020019060019003908161347b5790505b50816080018190525060405180604001604052807f0101beb679dbadc0714b2928ee191ef16b88a3b1698cd7ef4fe193df3c314a9f81526020017f18c22933bccb74e8d58c5a41130da69ea87935c2e75214f1dbbdef92670079d1815250816080015160008151811061350557fe5b602002602001018190525060405180604001604052807f058fdf817217a6015ed0ff26b6faa45585f7ad25bb98b4934622e6d6495f3b4b81526020017f1ac11456306a51136ae0a76dff56a12909656e5db4188d4b5bd3aa692b753e37815250816080015160018151811061357657fe5b602002602001018190525060405180604001604052807f0d859aa57b2c781d86104abc5f56671917e82d55cc6bf3b440d86e601b9df8c381526020017f28420cc40b9174f0f45cbd0acb25c2f8831482c90043ea1057bf2d12fae5a19081525081608001516002815181106135e757fe5b602002602001018190525090565b6135fd6141ca565b61360561422a565b83600001518160006003811061361757fe5b60200201818152505083602001518160016003811061363257fe5b602002018181525050828160026003811061364957fe5b602002018181525050600060608360808460076107d05a03fa9050806000811461367257613674565bfe5b508061367f57600080fd5b505092915050565b61368f6141ca565b61369761424c565b8360000151816000600481106136a957fe5b6020020181815250508360200151816001600481106136c457fe5b6020020181815250508260000151816002600481106136df57fe5b6020020181815250508260200151816003600481106136fa57fe5b602002018181525050600060608360c08460066107d05a03fa9050806000811461372357613725565bfe5b508061373057600080fd5b505092915050565b6137406141ca565b60007f30644e72e131a029b85045b68181585d97816a916871ca8d3c208c16d87cfd4790506000836000015114801561377d575060008360200151145b156137a15760405180604001604052806000815260200160008152509150506137cd565b604051806040016040528084600001518152602001828560200151816137c357fe5b0683038152509150505b919050565b60006060600460405190808252806020026020018201604052801561381157816020015b6137fe614210565b8152602001906001900390816137f65790505b5090506060600460405190808252806020026020018201604052801561385157816020015b61383e61426e565b8152602001906001900390816138365790505b5090508a8260008151811061386257fe5b6020026020010181905250888260018151811061387b57fe5b6020026020010181905250868260028151811061389457fe5b602002602001018190525084826003815181106138ad57fe5b602002602001018190525089816000815181106138c657fe5b602002602001018190525087816001815181106138df57fe5b602002602001018190525085816002815181106138f857fe5b6020026020010181905250838160038151811061391157fe5b60200260200101819052506139268282613d84565b9250505098975050505050505050565b60008060007fc5d2460186f7233c927e7db2dcc703c0e500b653ca82273b7bfad8045d85a47060001b9050833f915080821415801561397857506000801b8214155b92505050919050565b600073ffffffffffffffffffffffffffffffffffffffff166003600083815260200190815260200160002060009054906101000a900473ffffffffffffffffffffffffffffffffffffffff1673ffffffffffffffffffffffffffffffffffffffff1614613a3c5760006003600083815260200190815260200160002060006101000a81548173ffffffffffffffffffffffffffffffffffffffff021916908373ffffffffffffffffffffffffffffffffffffffff1602179055505b50565b613a5760018260000154613a7890919063ffffffff16565b816000018190555050565b6001816000016000828254019250508190555050565b6000613aba83836040518060400160405280601e81526020017f536166654d6174683a207375627472616374696f6e206f766572666c6f770000815250613fd7565b905092915050565b6060808690506060869050606086905060608690506060869050606081518351855187518951010101016040519080825280601f01601f191660200182016040528015613b1e5781602001600182028038833980820191505090505b509050606081905060008090506000809050600090505b8851811015613ba357888181518110613b4a57fe5b602001015160f81c60f81b838380600101945081518110613b6757fe5b60200101907effffffffffffffffffffffffffffffffffffffffffffffffffffffffffffff1916908160001a9053508080600101915050613b35565b600090505b8751811015613c1657878181518110613bbd57fe5b602001015160f81c60f81b838380600101945081518110613bda57fe5b60200101907effffffffffffffffffffffffffffffffffffffffffffffffffffffffffffff1916908160001a9053508080600101915050613ba8565b600090505b8651811015613c8957868181518110613c3057fe5b602001015160f81c60f81b838380600101945081518110613c4d57fe5b60200101907effffffffffffffffffffffffffffffffffffffffffffffffffffffffffffff1916908160001a9053508080600101915050613c1b565b600090505b8551811015613cfc57858181518110613ca357fe5b602001015160f81c60f81b838380600101945081518110613cc057fe5b60200101907effffffffffffffffffffffffffffffffffffffffffffffffffffffffffffff1916908160001a9053508080600101915050613c8e565b600090505b8451811015613d6f57848181518110613d1657fe5b602001015160f81c60f81b838380600101945081518110613d3357fe5b60200101907effffffffffffffffffffffffffffffffffffffffffffffffffffffffffffff1916908160001a9053508080600101915050613d01565b82995050505050505050505095945050505050565b60008151835114613d9457600080fd5b6000835190506000600682029050606081604051908082528060200260200182016040528015613dd35781602001602082028038833980820191505090505b50905060008090505b83811015613f7957868181518110613df057fe5b602002602001015160000151826000600684020181518110613e0e57fe5b602002602001018181525050868181518110613e2657fe5b602002602001015160200151826001600684020181518110613e4457fe5b602002602001018181525050858181518110613e5c57fe5b602002602001015160000151600160028110613e7457fe5b6020020151826002600684020181518110613e8b57fe5b602002602001018181525050858181518110613ea357fe5b602002602001015160000151600060028110613ebb57fe5b6020020151826003600684020181518110613ed257fe5b602002602001018181525050858181518110613eea57fe5b602002602001015160200151600160028110613f0257fe5b6020020151826004600684020181518110613f1957fe5b602002602001018181525050858181518110613f3157fe5b602002602001015160200151600060028110613f4957fe5b6020020151826005600684020181518110613f6057fe5b6020026020010181815250508080600101915050613ddc565b50613f82614294565b6000602082602086026020860160086107d05a03fa90508060008114613fa757613fa9565bfe5b5080613fb457600080fd5b600082600060018110613fc357fe5b602002015114159550505050505092915050565b6000838311158290614084576040517f08c379a00000000000000000000000000000000000000000000000000000000081526004018080602001828103825283818151815260200191508051906020019080838360005b8381101561404957808201518184015260208101905061402e565b50505050905090810190601f1680156140765780820380516001836020036101000a031916815260200191505b509250505060405180910390fd5b5060008385039050809150509392505050565b604051806060016040528060008152602001600073ffffffffffffffffffffffffffffffffffffffff1681526020016000151581525090565b60405180606001604052806140e3614210565b81526020016140f061426e565b81526020016140fd614210565b81525090565b828054600181600116156101000203166002900490600052602060002090601f016020900481019282601f1061414457805160ff1916838001178555614172565b82800160010185558215614172579182015b82811115614171578251825591602001919060010190614156565b5b50905061417f91906142b6565b5090565b6040518060a00160405280614196614210565b81526020016141a361426e565b81526020016141b061426e565b81526020016141bd61426e565b8152602001606081525090565b604051806040016040528060008152602001600081525090565b81548183558181111561420b5781836000526020600020918201910161420a91906142b6565b5b505050565b604051806040016040528060008152602001600081525090565b6040518060600160405280600390602082028038833980820191505090505090565b6040518060800160405280600490602082028038833980820191505090505090565b60405180604001604052806142816142db565b815260200161428e6142db565b81525090565b6040518060200160405280600190602082028038833980820191505090505090565b6142d891905b808211156142d45760008160009055506001016142bc565b5090565b90565b604051806040016040528060029060208202803883398082019150509050509056fe4e6f7420656e6f75676874207065726d697373696f6e7320746f2065786563757465546f6b656e20657869737473206f722041646472657373206973206e6f742076616c69642143616c6c657220697320616c726561647920616e206f776e6572206f66207468697320746f6b656ea265627a7a723158202021f9d438d83d7e624628c1a134160fe85cd0d07c53c3bebda61f0ee136ee2764736f6c6343000510003268747470733a2f2f73332d75732d776573742d322e616d617a6f6e6177732e636f6d2f756461636974792d626c6f636b636861696e2f63617073746f6e652f",
  "source": "pragma solidity >=0.4.21 <0.6.0;\n\n//  define a contract call to the zokrates generated solidity contract <Verifier> or <renamedVerifier>\nimport \"./verifier.sol\";\nimport \"./ERC721Mintable.sol\";\nimport \"openzeppelin-solidity/contracts/math/SafeMath.sol\";\n\n//  define another contract named SolnSquareVerifier that inherits from your ERC721Mintable class\ncontract SolnSquareVerifier is ERC721MintableComplete, Verifier {\n    //  define a solutions struct that can hold an index & an address\n    struct Solution {\n        uint256 index;\n        address addr;\n        bool exists;\n    }\n\n    //  define an array of the above struct\n    Solution[] private solutionList;\n    //  define a mapping to store unique solutions submitted\n    mapping(bytes32 => Solution) solutions;\n\n    // Create an event to emit when a solution is added\n    event SolutionAdded(uint256 index, address addr);\n\n    //  Create a function to add the solutions to the array and emit the event\n\n    modifier unique(bytes32 key) {\n        require(!solutions[key].exists, \"The key is unique\");\n        _;\n    }\n\n    modifier validTx(\n        uint256[2] memory a,\n        uint256[2][2] memory b,\n        uint256[2] memory c,\n        uint256[2] memory input\n    ) {\n        require(verifyTx(a, b, c, input), \"TX verification Failed\");\n        _;\n    }\n\n    function solutionAdd(bytes32 key, address verifyAddress)\n        public\n        unique(key)\n    {\n        Solution memory solution = Solution(\n            solutionList.length,\n            verifyAddress,\n            true\n        );\n        solutionList.push(solution);\n        solutions[key] = solution;\n        emit SolutionAdded(solution.index, verifyAddress);\n    }\n\n    // TODO Create a function to mint new NFT only after the solution has been verified\n    //  - make sure the solution is unique (has not been used before)\n    //  - make sure you handle metadata as well as tokenSuplly\n    function mint(\n        address to,\n        uint256 tokenId,\n        uint256[2] memory a,\n        uint256[2][2] memory b,\n        uint256[2] memory c,\n        uint256[2] memory inputs\n    ) public validTx(a, b, c, inputs) {\n        bytes32 key = keccak256(abi.encodePacked(a, b, c, inputs));\n\n        solutionAdd(key, msg.sender);\n        super.mint(to, tokenId);\n    }\n}\n",
  "sourcePath": "/workspaces/Blockchain-Capstone/eth-contracts/contracts/SolnSquareVerifier.sol",
  "compiler": {
    "name": "solc",
    "version": "0.5.16+commit.9c3226ce.Emscripten.clang"
  },
  "schemaVersion": "3.4.6",
  "updatedAt": "2022-03-29T01:28:56.037Z",
  "devdoc": {
    "methods": {
      "isApprovedForAll(address,address)": {
        "details": "Tells whether an operator is approved by a given owner",
        "params": {
          "operator": "operator address which you want to query the approval of",
          "owner": "owner address which you want to query the approval of"
        },
        "return": "bool whether the given operator is approved by the given owner"
      },
      "setApprovalForAll(address,bool)": {
        "details": "Sets or unsets the approval of a given operator An operator is allowed to transfer all tokens of the sender on their behalf",
        "params": {
          "approved": "representing the status of the approval to be set",
          "to": "operator address to set the approval"
        }
      },
      "supportsInterface(bytes4)": {
        "details": "implement supportsInterface(bytes4) using a lookup table"
      },
      "tokenByIndex(uint256)": {
        "details": "Gets the token ID at a given index of all the tokens in this contract Reverts if the index is greater or equal to the total number of tokens",
        "params": {
          "index": "uint256 representing the index to be accessed of the tokens list"
        },
        "return": "uint256 token ID at the given index of the tokens list"
      },
      "tokenOfOwnerByIndex(address,uint256)": {
        "details": "Gets the token ID at a given index of the tokens list of the requested owner",
        "params": {
          "index": "uint256 representing the index to be accessed of the requested tokens list",
          "owner": "address owning the tokens list to be accessed"
        },
        "return": "uint256 token ID at the given index of the tokens list owned by the requested address"
      },
      "totalSupply()": {
        "details": "Gets the total amount of tokens stored by the contract",
        "return": "uint256 representing the total amount of tokens"
      }
    }
  },
  "userdoc": {
    "methods": {}
  }
}