{
  "contractName": "SolnSquareVerifier",
  "abi": [
    {
      "anonymous": false,
      "inputs": [
        {
          "indexed": true,
          "internalType": "address",
          "name": "owner",
          "type": "address"
        },
        {
          "indexed": true,
          "internalType": "address",
          "name": "approved",
          "type": "address"
        },
        {
          "indexed": true,
          "internalType": "uint256",
          "name": "tokenId",
          "type": "uint256"
        }
      ],
      "name": "Approval",
      "type": "event"
    },
    {
      "anonymous": false,
      "inputs": [
        {
          "indexed": true,
          "internalType": "address",
          "name": "owner",
          "type": "address"
        },
        {
          "indexed": true,
          "internalType": "address",
          "name": "operator",
          "type": "address"
        },
        {
          "indexed": false,
          "internalType": "bool",
          "name": "approved",
          "type": "bool"
        }
      ],
      "name": "ApprovalForAll",
      "type": "event"
    },
    {
      "anonymous": false,
      "inputs": [
        {
          "indexed": false,
          "internalType": "address",
          "name": "addr",
          "type": "address"
        }
      ],
      "name": "OwnerShipTransferred",
      "type": "event"
    },
    {
      "anonymous": false,
      "inputs": [],
      "name": "Paused",
      "type": "event"
    },
    {
      "anonymous": false,
      "inputs": [
        {
          "indexed": false,
          "internalType": "uint256",
          "name": "index",
          "type": "uint256"
        },
        {
          "indexed": false,
          "internalType": "address",
          "name": "addr",
          "type": "address"
        },
        {
          "indexed": false,
          "internalType": "bool",
          "name": "exists",
          "type": "bool"
        }
      ],
      "name": "SolutionAdded",
      "type": "event"
    },
    {
      "anonymous": false,
      "inputs": [
        {
          "indexed": true,
          "internalType": "address",
          "name": "from",
          "type": "address"
        },
        {
          "indexed": true,
          "internalType": "address",
          "name": "to",
          "type": "address"
        },
        {
          "indexed": true,
          "internalType": "uint256",
          "name": "tokenId",
          "type": "uint256"
        }
      ],
      "name": "Transfer",
      "type": "event"
    },
    {
      "anonymous": false,
      "inputs": [],
      "name": "Unpaused",
      "type": "event"
    },
    {
      "constant": false,
      "inputs": [
        {
          "internalType": "bytes32",
          "name": "_myid",
          "type": "bytes32"
        },
        {
          "internalType": "string",
          "name": "_result",
          "type": "string"
        }
      ],
      "name": "__callback",
      "outputs": [],
      "payable": false,
      "stateMutability": "nonpayable",
      "type": "function"
    },
    {
      "constant": false,
      "inputs": [
        {
          "internalType": "bytes32",
          "name": "_myid",
          "type": "bytes32"
        },
        {
          "internalType": "string",
          "name": "_result",
          "type": "string"
        },
        {
          "internalType": "bytes",
          "name": "_proof",
          "type": "bytes"
        }
      ],
      "name": "__callback",
      "outputs": [],
      "payable": false,
      "stateMutability": "nonpayable",
      "type": "function"
    },
    {
      "constant": false,
      "inputs": [
        {
          "internalType": "address",
          "name": "to",
          "type": "address"
        },
        {
          "internalType": "uint256",
          "name": "tokenId",
          "type": "uint256"
        }
      ],
      "name": "approve",
      "outputs": [],
      "payable": false,
      "stateMutability": "nonpayable",
      "type": "function"
    },
    {
      "constant": true,
      "inputs": [
        {
          "internalType": "address",
          "name": "owner",
          "type": "address"
        }
      ],
      "name": "balanceOf",
      "outputs": [
        {
          "internalType": "uint256",
          "name": "",
          "type": "uint256"
        }
      ],
      "payable": false,
      "stateMutability": "view",
      "type": "function"
    },
    {
      "constant": true,
      "inputs": [],
      "name": "baseTokenURI",
      "outputs": [
        {
          "internalType": "string",
          "name": "",
          "type": "string"
        }
      ],
      "payable": false,
      "stateMutability": "view",
      "type": "function"
    },
    {
      "constant": true,
      "inputs": [
        {
          "internalType": "uint256",
          "name": "tokenId",
          "type": "uint256"
        }
      ],
      "name": "getApproved",
      "outputs": [
        {
          "internalType": "address",
          "name": "",
          "type": "address"
        }
      ],
      "payable": false,
      "stateMutability": "view",
      "type": "function"
    },
    {
      "constant": false,
      "inputs": [],
      "name": "getOwner",
      "outputs": [
        {
          "internalType": "address",
          "name": "",
          "type": "address"
        }
      ],
      "payable": false,
      "stateMutability": "nonpayable",
      "type": "function"
    },
    {
      "constant": true,
      "inputs": [
        {
          "internalType": "address",
          "name": "owner",
          "type": "address"
        },
        {
          "internalType": "address",
          "name": "operator",
          "type": "address"
        }
      ],
      "name": "isApprovedForAll",
      "outputs": [
        {
          "internalType": "bool",
          "name": "",
          "type": "bool"
        }
      ],
      "payable": false,
      "stateMutability": "view",
      "type": "function"
    },
    {
      "constant": true,
      "inputs": [],
      "name": "name",
      "outputs": [
        {
          "internalType": "string",
          "name": "",
          "type": "string"
        }
      ],
      "payable": false,
      "stateMutability": "view",
      "type": "function"
    },
    {
      "constant": true,
      "inputs": [
        {
          "internalType": "uint256",
          "name": "tokenId",
          "type": "uint256"
        }
      ],
      "name": "ownerOf",
      "outputs": [
        {
          "internalType": "address",
          "name": "",
          "type": "address"
        }
      ],
      "payable": false,
      "stateMutability": "view",
      "type": "function"
    },
    {
      "constant": false,
      "inputs": [
        {
          "internalType": "address",
          "name": "from",
          "type": "address"
        },
        {
          "internalType": "address",
          "name": "to",
          "type": "address"
        },
        {
          "internalType": "uint256",
          "name": "tokenId",
          "type": "uint256"
        }
      ],
      "name": "safeTransferFrom",
      "outputs": [],
      "payable": false,
      "stateMutability": "nonpayable",
      "type": "function"
    },
    {
      "constant": false,
      "inputs": [
        {
          "internalType": "address",
          "name": "from",
          "type": "address"
        },
        {
          "internalType": "address",
          "name": "to",
          "type": "address"
        },
        {
          "internalType": "uint256",
          "name": "tokenId",
          "type": "uint256"
        },
        {
          "internalType": "bytes",
          "name": "_data",
          "type": "bytes"
        }
      ],
      "name": "safeTransferFrom",
      "outputs": [],
      "payable": false,
      "stateMutability": "nonpayable",
      "type": "function"
    },
    {
      "constant": false,
      "inputs": [
        {
          "internalType": "address",
          "name": "to",
          "type": "address"
        },
        {
          "internalType": "bool",
          "name": "approved",
          "type": "bool"
        }
      ],
      "name": "setApprovalForAll",
      "outputs": [],
      "payable": false,
      "stateMutability": "nonpayable",
      "type": "function"
    },
    {
      "constant": false,
      "inputs": [
        {
          "internalType": "bool",
          "name": "pause",
          "type": "bool"
        }
      ],
      "name": "setPause",
      "outputs": [],
      "payable": false,
      "stateMutability": "nonpayable",
      "type": "function"
    },
    {
      "constant": true,
      "inputs": [
        {
          "internalType": "bytes4",
          "name": "interfaceId",
          "type": "bytes4"
        }
      ],
      "name": "supportsInterface",
      "outputs": [
        {
          "internalType": "bool",
          "name": "",
          "type": "bool"
        }
      ],
      "payable": false,
      "stateMutability": "view",
      "type": "function"
    },
    {
      "constant": true,
      "inputs": [],
      "name": "symbol",
      "outputs": [
        {
          "internalType": "string",
          "name": "",
          "type": "string"
        }
      ],
      "payable": false,
      "stateMutability": "view",
      "type": "function"
    },
    {
      "constant": true,
      "inputs": [
        {
          "internalType": "uint256",
          "name": "index",
          "type": "uint256"
        }
      ],
      "name": "tokenByIndex",
      "outputs": [
        {
          "internalType": "uint256",
          "name": "",
          "type": "uint256"
        }
      ],
      "payable": false,
      "stateMutability": "view",
      "type": "function"
    },
    {
      "constant": true,
      "inputs": [
        {
          "internalType": "address",
          "name": "owner",
          "type": "address"
        },
        {
          "internalType": "uint256",
          "name": "index",
          "type": "uint256"
        }
      ],
      "name": "tokenOfOwnerByIndex",
      "outputs": [
        {
          "internalType": "uint256",
          "name": "",
          "type": "uint256"
        }
      ],
      "payable": false,
      "stateMutability": "view",
      "type": "function"
    },
    {
      "constant": true,
      "inputs": [
        {
          "internalType": "uint256",
          "name": "tokenId",
          "type": "uint256"
        }
      ],
      "name": "tokenURI",
      "outputs": [
        {
          "internalType": "string",
          "name": "",
          "type": "string"
        }
      ],
      "payable": false,
      "stateMutability": "view",
      "type": "function"
    },
    {
      "constant": true,
      "inputs": [],
      "name": "totalSupply",
      "outputs": [
        {
          "internalType": "uint256",
          "name": "",
          "type": "uint256"
        }
      ],
      "payable": false,
      "stateMutability": "view",
      "type": "function"
    },
    {
      "constant": false,
      "inputs": [
        {
          "internalType": "address",
          "name": "from",
          "type": "address"
        },
        {
          "internalType": "address",
          "name": "to",
          "type": "address"
        },
        {
          "internalType": "uint256",
          "name": "tokenId",
          "type": "uint256"
        }
      ],
      "name": "transferFrom",
      "outputs": [],
      "payable": false,
      "stateMutability": "nonpayable",
      "type": "function"
    },
    {
      "constant": false,
      "inputs": [
        {
          "internalType": "address",
          "name": "newOwner",
          "type": "address"
        }
      ],
      "name": "transferOwnership",
      "outputs": [],
      "payable": false,
      "stateMutability": "nonpayable",
      "type": "function"
    },
    {
      "constant": true,
      "inputs": [
        {
          "internalType": "uint256[2]",
          "name": "a",
          "type": "uint256[2]"
        },
        {
          "internalType": "uint256[2][2]",
          "name": "b",
          "type": "uint256[2][2]"
        },
        {
          "internalType": "uint256[2]",
          "name": "c",
          "type": "uint256[2]"
        },
        {
          "internalType": "uint256[2]",
          "name": "input",
          "type": "uint256[2]"
        }
      ],
      "name": "verifyTx",
      "outputs": [
        {
          "internalType": "bool",
          "name": "r",
          "type": "bool"
        }
      ],
      "payable": false,
      "stateMutability": "view",
      "type": "function"
    },
    {
      "constant": false,
      "inputs": [
        {
          "internalType": "address",
          "name": "to",
          "type": "address"
        },
        {
          "internalType": "uint256",
          "name": "tokenId",
          "type": "uint256"
        }
      ],
      "name": "mint",
      "outputs": [
        {
          "internalType": "bool",
          "name": "",
          "type": "bool"
        }
      ],
      "payable": false,
      "stateMutability": "nonpayable",
      "type": "function"
    },
    {
      "constant": false,
      "inputs": [
        {
          "internalType": "address",
          "name": "to",
          "type": "address"
        },
        {
          "internalType": "uint256",
          "name": "tokenId",
          "type": "uint256"
        },
        {
          "internalType": "uint256[2]",
          "name": "a",
          "type": "uint256[2]"
        },
        {
          "internalType": "uint256[2][2]",
          "name": "b",
          "type": "uint256[2][2]"
        },
        {
          "internalType": "uint256[2]",
          "name": "c",
          "type": "uint256[2]"
        },
        {
          "internalType": "uint256[2]",
          "name": "inputs",
          "type": "uint256[2]"
        }
      ],
      "name": "mint",
      "outputs": [],
      "payable": false,
      "stateMutability": "nonpayable",
      "type": "function"
    }
  ],
  "bytecode": "0x60806040526040518060400160405280600b81526020017f437573746f6d546f6b656e0000000000000000000000000000000000000000008152506040518060400160405280600281526020017f43430000000000000000000000000000000000000000000000000000000000008152506040518060600160405280603f81526020016200463f603f9139336000806101000a81548173ffffffffffffffffffffffffffffffffffffffff021916908373ffffffffffffffffffffffffffffffffffffffff16021790555060008060146101000a81548160ff021916908315150217905550620000fc6301ffc9a760e01b6200019860201b60201c565b620001146380ac58cd60e01b6200019860201b60201c565b6200012c63780e9d6360e01b6200019860201b60201c565b82600f90805190602001906200014492919062000238565b5081601090805190602001906200015d92919062000238565b5080601190805190602001906200017692919062000238565b506200018f635b5e139f60e01b6200019860201b60201c565b505050620002e7565b63ffffffff60e01b817bffffffffffffffffffffffffffffffffffffffffffffffffffffffff19161415620001cc57600080fd5b6001806000837bffffffffffffffffffffffffffffffffffffffffffffffffffffffff19167bffffffffffffffffffffffffffffffffffffffffffffffffffffffff1916815260200190815260200160002060006101000a81548160ff02191690831515021790555050565b828054600181600116156101000203166002900490600052602060002090601f016020900481019282601f106200027b57805160ff1916838001178555620002ac565b82800160010185558215620002ac579182015b82811115620002ab5782518255916020019190600101906200028e565b5b509050620002bb9190620002bf565b5090565b620002e491905b80821115620002e0576000816000905550600101620002c6565b5090565b90565b61434880620002f76000396000f3fe608060405234801561001057600080fd5b50600436106101735760003560e01c8063621e9ec0116100de578063b88d4fde11610097578063d547cfb711610071578063d547cfb714610c79578063e985e9c514610cfc578063f2fde38b14610d78578063fec6cfb914610dbc57610173565b8063b88d4fde14610a9d578063bedb86fb14610ba2578063c87b56dd14610bd257610173565b8063621e9ec0146107415780636352211e146108ba57806370a0823114610928578063893d20e81461098057806395d89b41146109ca578063a22cb46514610a4d57610173565b806327dc297e1161013057806327dc297e146103a85780632f745c591461046d57806338bbfa50146104cf57806340c10f191461062b57806342842e0e146106915780634f6ccce7146106ff57610173565b806301ffc9a71461017857806306fdde03146101dd578063081812fc14610260578063095ea7b3146102ce57806318160ddd1461031c57806323b872dd1461033a575b600080fd5b6101c36004803603602081101561018e57600080fd5b8101908080357bffffffffffffffffffffffffffffffffffffffffffffffffffffffff19169060200190929190505050610f47565b604051808215151515815260200191505060405180910390f35b6101e5610faf565b6040518080602001828103825283818151815260200191508051906020019080838360005b8381101561022557808201518184015260208101905061020a565b50505050905090810190601f1680156102525780820380516001836020036101000a031916815260200191505b509250505060405180910390f35b61028c6004803603602081101561027657600080fd5b8101908080359060200190929190505050611051565b604051808273ffffffffffffffffffffffffffffffffffffffff1673ffffffffffffffffffffffffffffffffffffffff16815260200191505060405180910390f35b61031a600480360360408110156102e457600080fd5b81019080803573ffffffffffffffffffffffffffffffffffffffff16906020019092919080359060200190929190505050611109565b005b6103246112eb565b6040518082815260200191505060405180910390f35b6103a66004803603606081101561035057600080fd5b81019080803573ffffffffffffffffffffffffffffffffffffffff169060200190929190803573ffffffffffffffffffffffffffffffffffffffff169060200190929190803590602001909291905050506112f8565b005b61046b600480360360408110156103be57600080fd5b8101908080359060200190929190803590602001906401000000008111156103e557600080fd5b8201836020820111156103f757600080fd5b8035906020019184600183028401116401000000008311171561041957600080fd5b91908080601f016020809104026020016040519081016040528093929190818152602001838380828437600081840152601f19601f82011690508083019250505050505050919291929050505061131b565b005b6104b96004803603604081101561048357600080fd5b81019080803573ffffffffffffffffffffffffffffffffffffffff1690602001909291908035906020019092919050505061135e565b6040518082815260200191505060405180910390f35b610629600480360360608110156104e557600080fd5b81019080803590602001909291908035906020019064010000000081111561050c57600080fd5b82018360208201111561051e57600080fd5b8035906020019184600183028401116401000000008311171561054057600080fd5b91908080601f016020809104026020016040519081016040528093929190818152602001838380828437600081840152601f19601f820116905080830192505050505050509192919290803590602001906401000000008111156105a357600080fd5b8201836020820111156105b557600080fd5b803590602001918460018302840111640100000000831117156105d757600080fd5b91908080601f016020809104026020016040519081016040528093929190818152602001838380828437600081840152601f19601f8201169050808301925050505050505091929192905050506113d1565b005b6106776004803603604081101561064157600080fd5b81019080803573ffffffffffffffffffffffffffffffffffffffff169060200190929190803590602001909291905050506113d6565b604051808215151515815260200191505060405180910390f35b6106fd600480360360608110156106a757600080fd5b81019080803573ffffffffffffffffffffffffffffffffffffffff169060200190929190803573ffffffffffffffffffffffffffffffffffffffff169060200190929190803590602001909291905050506114cf565b005b61072b6004803603602081101561071557600080fd5b81019080803590602001909291905050506114ef565b6040518082815260200191505060405180910390f35b6108a0600480360361014081101561075857600080fd5b8101908080604001906002806020026040519081016040528092919082600260200280828437600081840152601f19601f82011690508083019250505050505091929192908060800190600280602002604051908101604052809291906000905b8282101561080d578382604002016002806020026040519081016040528092919082600260200280828437600081840152601f19601f820116905080830192505050505050815260200190600101906107b9565b50505050919291929080604001906002806020026040519081016040528092919082600260200280828437600081840152601f19601f820116905080830192505050505050919291929080604001906002806020026040519081016040528092919082600260200280828437600081840152601f19601f8201169050808301925050505050509192919290505050611523565b604051808215151515815260200191505060405180910390f35b6108e6600480360360208110156108d057600080fd5b810190808035906020019092919050505061171f565b604051808273ffffffffffffffffffffffffffffffffffffffff1673ffffffffffffffffffffffffffffffffffffffff16815260200191505060405180910390f35b61096a6004803603602081101561093e57600080fd5b81019080803573ffffffffffffffffffffffffffffffffffffffff16906020019092919050505061175c565b6040518082815260200191505060405180910390f35b6109886117ac565b604051808273ffffffffffffffffffffffffffffffffffffffff1673ffffffffffffffffffffffffffffffffffffffff16815260200191505060405180910390f35b6109d26117d5565b6040518080602001828103825283818151815260200191508051906020019080838360005b83811015610a125780820151818401526020810190506109f7565b50505050905090810190601f168015610a3f5780820380516001836020036101000a031916815260200191505b509250505060405180910390f35b610a9b60048036036040811015610a6357600080fd5b81019080803573ffffffffffffffffffffffffffffffffffffffff169060200190929190803515159060200190929190505050611877565b005b610ba060048036036080811015610ab357600080fd5b81019080803573ffffffffffffffffffffffffffffffffffffffff169060200190929190803573ffffffffffffffffffffffffffffffffffffffff1690602001909291908035906020019092919080359060200190640100000000811115610b1a57600080fd5b820183602082011115610b2c57600080fd5b80359060200191846001830284011164010000000083111715610b4e57600080fd5b91908080601f016020809104026020016040519081016040528093929190818152602001838380828437600081840152601f19601f8201169050808301925050505050505091929192905050506119b1565b005b610bd060048036036020811015610bb857600080fd5b810190808035151590602001909291905050506119d7565b005b610bfe60048036036020811015610be857600080fd5b8101908080359060200190929190505050611b29565b6040518080602001828103825283818151815260200191508051906020019080838360005b83811015610c3e578082015181840152602081019050610c23565b50505050905090810190601f168015610c6b5780820380516001836020036101000a031916815260200191505b509250505060405180910390f35b610c81611bf0565b6040518080602001828103825283818151815260200191508051906020019080838360005b83811015610cc1578082015181840152602081019050610ca6565b50505050905090810190601f168015610cee5780820380516001836020036101000a031916815260200191505b509250505060405180910390f35b610d5e60048036036040811015610d1257600080fd5b81019080803573ffffffffffffffffffffffffffffffffffffffff169060200190929190803573ffffffffffffffffffffffffffffffffffffffff169060200190929190505050611c92565b604051808215151515815260200191505060405180910390f35b610dba60048036036020811015610d8e57600080fd5b81019080803573ffffffffffffffffffffffffffffffffffffffff169060200190929190505050611d26565b005b610f456004803603610180811015610dd357600080fd5b81019080803573ffffffffffffffffffffffffffffffffffffffff1690602001909291908035906020019092919080604001906002806020026040519081016040528092919082600260200280828437600081840152601f19601f82011690508083019250505050505091929192908060800190600280602002604051908101604052809291906000905b82821015610eb2578382604002016002806020026040519081016040528092919082600260200280828437600081840152601f19601f82011690508083019250505050505081526020019060010190610e5e565b50505050919291929080604001906002806020026040519081016040528092919082600260200280828437600081840152601f19601f820116905080830192505050505050919291929080604001906002806020026040519081016040528092919082600260200280828437600081840152601f19601f8201169050808301925050505050509192919290505050611f31565b005b600060016000837bffffffffffffffffffffffffffffffffffffffffffffffffffffffff19167bffffffffffffffffffffffffffffffffffffffffffffffffffffffff1916815260200190815260200160002060009054906101000a900460ff169050919050565b6060600f8054600181600116156101000203166002900480601f0160208091040260200160405190810160405280929190818152602001828054600181600116156101000203166002900480156110475780601f1061101c57610100808354040283529160200191611047565b820191906000526020600020905b81548152906001019060200180831161102a57829003601f168201915b5050505050905090565b600061105c826120db565b6110ce576040517f08c379a00000000000000000000000000000000000000000000000000000000081526004018080602001828103825260178152602001807f417070726f76616c20646f6573206e6f7420657869737400000000000000000081525060200191505060405180910390fd5b6003600083815260200190815260200160002060009054906101000a900473ffffffffffffffffffffffffffffffffffffffff169050919050565b6111128161171f565b73ffffffffffffffffffffffffffffffffffffffff168273ffffffffffffffffffffffffffffffffffffffff161415611196576040517f08c379a00000000000000000000000000000000000000000000000000000000081526004018080602001828103825260288152602001806142ec6028913960400191505060405180910390fd5b61119e6117ac565b73ffffffffffffffffffffffffffffffffffffffff163373ffffffffffffffffffffffffffffffffffffffff1614806111dd57506111dc3383611c92565b5b611232576040517f08c379a00000000000000000000000000000000000000000000000000000000081526004018080602001828103825260228152602001806142a56022913960400191505060405180910390fd5b816003600083815260200190815260200160002060006101000a81548173ffffffffffffffffffffffffffffffffffffffff021916908373ffffffffffffffffffffffffffffffffffffffff160217905550808273ffffffffffffffffffffffffffffffffffffffff166112a58361171f565b73ffffffffffffffffffffffffffffffffffffffff167f8c5be1e5ebec7d5bd14f71427d1e84f3dd0314c0f7b2291e5b200ac8c7c3b92560405160405180910390a45050565b6000600880549050905090565b611302338261214d565b61130b57600080fd5b6113168383836121e2565b505050565b61135a828260006040519080825280601f01601f1916602001820160405280156113545781602001600182028038833980820191505090505b506113d1565b5050565b60006113698361175c565b821061137457600080fd5b600660008473ffffffffffffffffffffffffffffffffffffffff1673ffffffffffffffffffffffffffffffffffffffff16815260200190815260200160002082815481106113be57fe5b9060005260206000200154905092915050565b505050565b60008060009054906101000a900473ffffffffffffffffffffffffffffffffffffffff1673ffffffffffffffffffffffffffffffffffffffff163373ffffffffffffffffffffffffffffffffffffffff161461149a576040517f08c379a00000000000000000000000000000000000000000000000000000000081526004018080602001828103825260188152602001807f4d757374206265206f776e657220746f2065786563757465000000000000000081525060200191505060405180910390fd5b6114a48383612206565b6114ad82612227565b6114b6826120db565b156114c457600190506114c9565b600090505b92915050565b6114ea838383604051806020016040528060008152506119b1565b505050565b60006114f96112eb565b821061150457600080fd5b6008828154811061151157fe5b90600052602060002001549050919050565b600061152d61403e565b60405180604001604052808760006002811061154557fe5b602002015181526020018760016002811061155c57fe5b60200201518152508160000181905250604051806040016040528060405180604001604052808860006002811061158f57fe5b60200201516000600281106115a057fe5b60200201518152602001886000600281106115b757fe5b60200201516001600281106115c857fe5b602002015181525081526020016040518060400160405280886001600281106115ed57fe5b60200201516000600281106115fe57fe5b602002015181526020018860016002811061161557fe5b602002015160016002811061162657fe5b6020020151815250815250816020018190525060405180604001604052808560006002811061165157fe5b602002015181526020018560016002811061166857fe5b60200201518152508160400181905250606060026040519080825280602002602001820160405280156116aa5781602001602082028038833980820191505090505b50905060008090505b60028110156116f2578481600281106116c857fe5b60200201518282815181106116d957fe5b60200260200101818152505080806001019150506116b3565b5060006116ff8284612315565b141561171057600192505050611717565b6000925050505b949350505050565b60006002600083815260200190815260200160002060009054906101000a900473ffffffffffffffffffffffffffffffffffffffff169050919050565b60006117a5600460008473ffffffffffffffffffffffffffffffffffffffff1673ffffffffffffffffffffffffffffffffffffffff168152602001908152602001600020612487565b9050919050565b60008060009054906101000a900473ffffffffffffffffffffffffffffffffffffffff16905090565b606060108054600181600116156101000203166002900480601f01602080910402602001604051908101604052809291908181526020018280546001816001161561010002031660029004801561186d5780601f106118425761010080835404028352916020019161186d565b820191906000526020600020905b81548152906001019060200180831161185057829003601f168201915b5050505050905090565b3373ffffffffffffffffffffffffffffffffffffffff168273ffffffffffffffffffffffffffffffffffffffff1614156118b057600080fd5b80600560003373ffffffffffffffffffffffffffffffffffffffff1673ffffffffffffffffffffffffffffffffffffffff16815260200190815260200160002060008473ffffffffffffffffffffffffffffffffffffffff1673ffffffffffffffffffffffffffffffffffffffff16815260200190815260200160002060006101000a81548160ff0219169083151502179055508173ffffffffffffffffffffffffffffffffffffffff163373ffffffffffffffffffffffffffffffffffffffff167f17307eab39ab6107e8899845ad3d59bd9653f200f220920489ca2b5937696c3183604051808215151515815260200191505060405180910390a35050565b6119bc8484846112f8565b6119c884848484612495565b6119d157600080fd5b50505050565b6000809054906101000a900473ffffffffffffffffffffffffffffffffffffffff1673ffffffffffffffffffffffffffffffffffffffff163373ffffffffffffffffffffffffffffffffffffffff1614611a99576040517f08c379a00000000000000000000000000000000000000000000000000000000081526004018080602001828103825260188152602001807f4d757374206265206f776e657220746f2065786563757465000000000000000081525060200191505060405180910390fd5b80600060146101000a81548160ff021916908315150217905550600060149054906101000a900460ff1615611af9577f9e87fac88ff661f02d44f95383c817fece4bce600a3dab7a54406878b965e75260405160405180910390a1611b26565b7fa45f47fdea8a1efdd9029a5691c7f759c32b7c698632b563573e155625d1693360405160405180910390a15b50565b6060611b34826120db565b611b3d57600080fd5b601260008381526020019081526020016000208054600181600116156101000203166002900480601f016020809104026020016040519081016040528092919081815260200182805460018160011615610100020316600290048015611be45780601f10611bb957610100808354040283529160200191611be4565b820191906000526020600020905b815481529060010190602001808311611bc757829003601f168201915b50505050509050919050565b606060118054600181600116156101000203166002900480601f016020809104026020016040519081016040528092919081815260200182805460018160011615610100020316600290048015611c885780601f10611c5d57610100808354040283529160200191611c88565b820191906000526020600020905b815481529060010190602001808311611c6b57829003601f168201915b5050505050905090565b6000600560008473ffffffffffffffffffffffffffffffffffffffff1673ffffffffffffffffffffffffffffffffffffffff16815260200190815260200160002060008373ffffffffffffffffffffffffffffffffffffffff1673ffffffffffffffffffffffffffffffffffffffff16815260200190815260200160002060009054906101000a900460ff16905092915050565b6000809054906101000a900473ffffffffffffffffffffffffffffffffffffffff1673ffffffffffffffffffffffffffffffffffffffff163373ffffffffffffffffffffffffffffffffffffffff1614611de8576040517f08c379a00000000000000000000000000000000000000000000000000000000081526004018080602001828103825260188152602001807f4d757374206265206f776e657220746f2065786563757465000000000000000081525060200191505060405180910390fd5b808073ffffffffffffffffffffffffffffffffffffffff168173ffffffffffffffffffffffffffffffffffffffff1614611e8a576040517f08c379a00000000000000000000000000000000000000000000000000000000081526004018080602001828103825260168152602001807f4d75737420626520612076616c6964206164647265730000000000000000000081525060200191505060405180910390fd5b816000806101000a81548173ffffffffffffffffffffffffffffffffffffffff021916908373ffffffffffffffffffffffffffffffffffffffff1602179055507f143e5287faad4318baa07178f135451e874bf0ab18ac3e5fe90d52756dc8e3d582604051808273ffffffffffffffffffffffffffffffffffffffff1673ffffffffffffffffffffffffffffffffffffffff16815260200191505060405180910390a15050565b83838383611f4184848484611523565b611fb3576040517f08c379a00000000000000000000000000000000000000000000000000000000081526004018080602001828103825260168152602001807f545820766572696669636174696f6e204661696c65640000000000000000000081525060200191505060405180910390fd5b6000888888886040516020018085600260200280838360005b83811015611fe7578082015181840152602081019050611fcc565b505050509050018460026000925b8184101561203b5782846020020151600260200280838360005b8381101561202a57808201518184015260208101905061200f565b505050509050019260010192611ff5565b9250505083600260200280838360005b8381101561206657808201518184015260208101905061204b565b5050505090500182600260200280838360005b83811015612094578082015181840152602081019050612079565b505050509050019450505050506040516020818303038152906040528051906020012090506120c3813361267e565b6120cd8b8b6113d6565b505050505050505050505050565b6000806002600084815260200190815260200160002060009054906101000a900473ffffffffffffffffffffffffffffffffffffffff169050600073ffffffffffffffffffffffffffffffffffffffff168173ffffffffffffffffffffffffffffffffffffffff161415915050919050565b6000806121598361171f565b90508073ffffffffffffffffffffffffffffffffffffffff168473ffffffffffffffffffffffffffffffffffffffff1614806121c857508373ffffffffffffffffffffffffffffffffffffffff166121b084611051565b73ffffffffffffffffffffffffffffffffffffffff16145b806121d957506121d88185611c92565b5b91505092915050565b6121ed838383612909565b6121f78382612b9e565b6122018282612d3c565b505050565b6122108282612e03565b61221a8282612d3c565b61222381612f91565b5050565b612230816120db565b61223957600080fd5b60606122e760118054600181600116156101000203166002900480601f0160208091040260200160405190810160405280929190818152602001828054600181600116156101000203166002900480156122d45780601f106122a9576101008083540402835291602001916122d4565b820191906000526020600020905b8154815290600101906020018083116122b757829003601f168201915b50505050506122e284612fdd565b61310a565b905080601260008481526020019081526020016000209080519060200190612310929190614071565b505050565b6000807f30644e72e131a029b85045b68181585d2833e84879b9709143e1f593f000000190506123436140f1565b61234b61314e565b905080608001515160018651011461236257600080fd5b61236a614138565b6040518060400160405280600081526020016000815250905060008090505b8651811015612400578387828151811061239f57fe5b6020026020010151106123b157600080fd5b6123f1826123ec856080015160018501815181106123cb57fe5b60200260200101518a85815181106123df57fe5b602002602001015161359c565b61362e565b91508080600101915050612389565b5061242381836080015160008151811061241657fe5b602002602001015161362e565b90506124698560000151866020015161243b846136df565b856040015161244d8a604001516136df565b876060015161245f89600001516136df565b8960200151613779565b6124795760019350505050612481565b600093505050505b92915050565b600081600001549050919050565b60006124b68473ffffffffffffffffffffffffffffffffffffffff166138dd565b6124c35760019050612676565b60008473ffffffffffffffffffffffffffffffffffffffff1663150b7a02338887876040518563ffffffff1660e01b8152600401808573ffffffffffffffffffffffffffffffffffffffff1673ffffffffffffffffffffffffffffffffffffffff1681526020018473ffffffffffffffffffffffffffffffffffffffff1673ffffffffffffffffffffffffffffffffffffffff16815260200183815260200180602001828103825283818151815260200191508051906020019080838360005b8381101561259e578082015181840152602081019050612583565b50505050905090810190601f1680156125cb5780820380516001836020036101000a031916815260200191505b5095505050505050602060405180830381600087803b1580156125ed57600080fd5b505af1158015612601573d6000803e3d6000fd5b505050506040513d602081101561261757600080fd5b8101908080519060200190929190505050905063150b7a0260e01b7bffffffffffffffffffffffffffffffffffffffffffffffffffffffff1916817bffffffffffffffffffffffffffffffffffffffffffffffffffffffff1916149150505b949350505050565b6014600083815260200190815260200160002060010160149054906101000a900460ff1615612715576040517f08c379a00000000000000000000000000000000000000000000000000000000081526004018080602001828103825260118152602001807f546865206b657920697320756e6971756500000000000000000000000000000081525060200191505060405180910390fd5b61271d614152565b604051806060016040528060016013805490500181526020018373ffffffffffffffffffffffffffffffffffffffff168152602001600115158152509050601381908060018154018082558091505090600182039060005260206000209060020201600090919290919091506000820151816000015560208201518160010160006101000a81548173ffffffffffffffffffffffffffffffffffffffff021916908373ffffffffffffffffffffffffffffffffffffffff16021790555060408201518160010160146101000a81548160ff02191690831515021790555050505080601460008581526020019081526020016000206000820151816000015560208201518160010160006101000a81548173ffffffffffffffffffffffffffffffffffffffff021916908373ffffffffffffffffffffffffffffffffffffffff16021790555060408201518160010160146101000a81548160ff0219169083151502179055509050507f01294b83361f7715b695189a469e96a6302a388f977ab3227ae6dbf84206e2838160000151838360400151604051808481526020018373ffffffffffffffffffffffffffffffffffffffff1673ffffffffffffffffffffffffffffffffffffffff16815260200182151515158152602001935050505060405180910390a1505050565b8273ffffffffffffffffffffffffffffffffffffffff166129298261171f565b73ffffffffffffffffffffffffffffffffffffffff16146129b2576040517f08c379a00000000000000000000000000000000000000000000000000000000081526004018080602001828103825260208152602001807f546f6b656e206973206e6f74206f776e6564206279207468652073656e64657281525060200191505060405180910390fd5b600073ffffffffffffffffffffffffffffffffffffffff168273ffffffffffffffffffffffffffffffffffffffff161415612a55576040517f08c379a00000000000000000000000000000000000000000000000000000000081526004018080602001828103825260178152602001807f546f2061646472657373206973206e6f742076616c696400000000000000000081525060200191505060405180910390fd5b612a5e81613928565b612aa5600460008573ffffffffffffffffffffffffffffffffffffffff1673ffffffffffffffffffffffffffffffffffffffff1681526020019081526020016000206139e6565b612aec600460008473ffffffffffffffffffffffffffffffffffffffff1673ffffffffffffffffffffffffffffffffffffffff168152602001908152602001600020613a09565b816002600083815260200190815260200160002060006101000a81548173ffffffffffffffffffffffffffffffffffffffff021916908373ffffffffffffffffffffffffffffffffffffffff160217905550808273ffffffffffffffffffffffffffffffffffffffff168473ffffffffffffffffffffffffffffffffffffffff167fddf252ad1be2c89b69c2b068fc378daa952ba7f163c4a11628f55a4df523b3ef60405160405180910390a4505050565b6000612bf66001600660008673ffffffffffffffffffffffffffffffffffffffff1673ffffffffffffffffffffffffffffffffffffffff16815260200190815260200160002080549050613a1f90919063ffffffff16565b9050600060076000848152602001908152602001600020549050818114612ce3576000600660008673ffffffffffffffffffffffffffffffffffffffff1673ffffffffffffffffffffffffffffffffffffffff1681526020019081526020016000208381548110612c6357fe5b9060005260206000200154905080600660008773ffffffffffffffffffffffffffffffffffffffff1673ffffffffffffffffffffffffffffffffffffffff1681526020019081526020016000208381548110612cbb57fe5b9060005260206000200181905550816007600083815260200190815260200160002081905550505b600660008573ffffffffffffffffffffffffffffffffffffffff1673ffffffffffffffffffffffffffffffffffffffff168152602001908152602001600020805480919060019003612d35919061418b565b5050505050565b600660008373ffffffffffffffffffffffffffffffffffffffff1673ffffffffffffffffffffffffffffffffffffffff168152602001908152602001600020805490506007600083815260200190815260200160002081905550600660008373ffffffffffffffffffffffffffffffffffffffff1673ffffffffffffffffffffffffffffffffffffffff1681526020019081526020016000208190806001815401808255809150509060018203906000526020600020016000909192909190915055505050565b612e0c816120db565b80612e435750600073ffffffffffffffffffffffffffffffffffffffff168273ffffffffffffffffffffffffffffffffffffffff16145b15612e99576040517f08c379a00000000000000000000000000000000000000000000000000000000081526004018080602001828103825260258152602001806142c76025913960400191505060405180910390fd5b816002600083815260200190815260200160002060006101000a81548173ffffffffffffffffffffffffffffffffffffffff021916908373ffffffffffffffffffffffffffffffffffffffff160217905550612f32600460008473ffffffffffffffffffffffffffffffffffffffff1673ffffffffffffffffffffffffffffffffffffffff168152602001908152602001600020613a09565b808273ffffffffffffffffffffffffffffffffffffffff163373ffffffffffffffffffffffffffffffffffffffff167fddf252ad1be2c89b69c2b068fc378daa952ba7f163c4a11628f55a4df523b3ef60405160405180910390a45050565b6008805490506009600083815260200190815260200160002081905550600881908060018154018082558091505090600182039060005260206000200160009091929091909150555050565b60606000821415613025576040518060400160405280600181526020017f30000000000000000000000000000000000000000000000000000000000000008152509050613105565b600082905060005b6000821461304f578080600101915050600a828161304757fe5b04915061302d565b6060816040519080825280601f01601f1916602001820160405280156130845781602001600182028038833980820191505090505b50905060006001830390505b600086146130fd57600a86816130a257fe5b0660300160f81b828280600190039350815181106130bc57fe5b60200101907effffffffffffffffffffffffffffffffffffffffffffffffffffffffffffff1916908160001a905350600a86816130f557fe5b049550613090565b819450505050505b919050565b60606131468383604051806020016040528060008152506040518060200160405280600081525060405180602001604052806000815250613a69565b905092915050565b6131566140f1565b60405180604001604052807f1c186d789ca2b33edbf3292b5a6898c8d4d08fe9a7ead72645f96cb00b93d96481526020017f2d6addb431d78df1767a38aaa3ef4f9d88d450c28f9bc56d9b650915e097a2888152508160000181905250604051806040016040528060405180604001604052807f2d2dc18f2d806b4c53923f2105d2fb9bfc2aba7fdc3b69cd674251eecbb4658b81526020017f1921e90d3fb095f1990f852f14ebbedb976d474a24584cbc210ea1804324aab3815250815260200160405180604001604052807f219dad3aecb7e9b156d0a36933410051d2fa7faaa4b65b56eb0eb58419bfa0ad81526020017f2b727ef964619ac08b9854368bdfb4fc28e8b5565fd3bbe1552cd555b06e2e9d8152508152508160200181905250604051806040016040528060405180604001604052807f0aa7da165580cbb9856ca1f377034c47da559378d5a7e8e2b2076105bf64694f81526020017f257b63d564dee321dc64bb85b18c83e9c091c0a608532025a0e4f0a76fad6f46815250815260200160405180604001604052807f292f74909d644de2b8ed5f9b74785b21647404397369ca071ef6e829345f4ef481526020017f2fdd384aec1451f1dfae25dbdff8a252c29f07bd975d485b34f9cb0eb296df548152508152508160400181905250604051806040016040528060405180604001604052807f1a57349d7a2cead97e209da8759135db9b6ee28cd6e61d4c11adb3f671421cde81526020017f29f0050dd5f05e01819aa5fd26a4fc4d1f59d476bf44d49c27f2f2c7fb892453815250815260200160405180604001604052807f0fe0878a1d1053ad2c8ce41132695fa15d4ccde85753f7d7673042a14e581bf981526020017f2350d371171c309e7782617c40c6137315e21ac348990a8163e90089ad051ee98152508152508160600181905250600360405190808252806020026020018201604052801561343d57816020015b61342a6141b7565b8152602001906001900390816134225790505b50816080018190525060405180604001604052807f0101beb679dbadc0714b2928ee191ef16b88a3b1698cd7ef4fe193df3c314a9f81526020017f18c22933bccb74e8d58c5a41130da69ea87935c2e75214f1dbbdef92670079d181525081608001516000815181106134ac57fe5b602002602001018190525060405180604001604052807f058fdf817217a6015ed0ff26b6faa45585f7ad25bb98b4934622e6d6495f3b4b81526020017f1ac11456306a51136ae0a76dff56a12909656e5db4188d4b5bd3aa692b753e37815250816080015160018151811061351d57fe5b602002602001018190525060405180604001604052807f0d859aa57b2c781d86104abc5f56671917e82d55cc6bf3b440d86e601b9df8c381526020017f28420cc40b9174f0f45cbd0acb25c2f8831482c90043ea1057bf2d12fae5a190815250816080015160028151811061358e57fe5b602002602001018190525090565b6135a4614138565b6135ac6141d1565b8360000151816000600381106135be57fe5b6020020181815250508360200151816001600381106135d957fe5b60200201818152505082816002600381106135f057fe5b602002018181525050600060608360808460076107d05a03fa905080600081146136195761361b565bfe5b508061362657600080fd5b505092915050565b613636614138565b61363e6141f3565b83600001518160006004811061365057fe5b60200201818152505083602001518160016004811061366b57fe5b60200201818152505082600001518160026004811061368657fe5b6020020181815250508260200151816003600481106136a157fe5b602002018181525050600060608360c08460066107d05a03fa905080600081146136ca576136cc565bfe5b50806136d757600080fd5b505092915050565b6136e7614138565b60007f30644e72e131a029b85045b68181585d97816a916871ca8d3c208c16d87cfd47905060008360000151148015613724575060008360200151145b15613748576040518060400160405280600081526020016000815250915050613774565b6040518060400160405280846000015181526020018285602001518161376a57fe5b0683038152509150505b919050565b6000606060046040519080825280602002602001820160405280156137b857816020015b6137a56141b7565b81526020019060019003908161379d5790505b509050606060046040519080825280602002602001820160405280156137f857816020015b6137e5614215565b8152602001906001900390816137dd5790505b5090508a8260008151811061380957fe5b6020026020010181905250888260018151811061382257fe5b6020026020010181905250868260028151811061383b57fe5b6020026020010181905250848260038151811061385457fe5b6020026020010181905250898160008151811061386d57fe5b6020026020010181905250878160018151811061388657fe5b6020026020010181905250858160028151811061389f57fe5b602002602001018190525083816003815181106138b857fe5b60200260200101819052506138cd8282613d2b565b9250505098975050505050505050565b60008060007fc5d2460186f7233c927e7db2dcc703c0e500b653ca82273b7bfad8045d85a47060001b9050833f915080821415801561391f57506000801b8214155b92505050919050565b600073ffffffffffffffffffffffffffffffffffffffff166003600083815260200190815260200160002060009054906101000a900473ffffffffffffffffffffffffffffffffffffffff1673ffffffffffffffffffffffffffffffffffffffff16146139e35760006003600083815260200190815260200160002060006101000a81548173ffffffffffffffffffffffffffffffffffffffff021916908373ffffffffffffffffffffffffffffffffffffffff1602179055505b50565b6139fe60018260000154613a1f90919063ffffffff16565b816000018190555050565b6001816000016000828254019250508190555050565b6000613a6183836040518060400160405280601e81526020017f536166654d6174683a207375627472616374696f6e206f766572666c6f770000815250613f7e565b905092915050565b6060808690506060869050606086905060608690506060869050606081518351855187518951010101016040519080825280601f01601f191660200182016040528015613ac55781602001600182028038833980820191505090505b509050606081905060008090506000809050600090505b8851811015613b4a57888181518110613af157fe5b602001015160f81c60f81b838380600101945081518110613b0e57fe5b60200101907effffffffffffffffffffffffffffffffffffffffffffffffffffffffffffff1916908160001a9053508080600101915050613adc565b600090505b8751811015613bbd57878181518110613b6457fe5b602001015160f81c60f81b838380600101945081518110613b8157fe5b60200101907effffffffffffffffffffffffffffffffffffffffffffffffffffffffffffff1916908160001a9053508080600101915050613b4f565b600090505b8651811015613c3057868181518110613bd757fe5b602001015160f81c60f81b838380600101945081518110613bf457fe5b60200101907effffffffffffffffffffffffffffffffffffffffffffffffffffffffffffff1916908160001a9053508080600101915050613bc2565b600090505b8551811015613ca357858181518110613c4a57fe5b602001015160f81c60f81b838380600101945081518110613c6757fe5b60200101907effffffffffffffffffffffffffffffffffffffffffffffffffffffffffffff1916908160001a9053508080600101915050613c35565b600090505b8451811015613d1657848181518110613cbd57fe5b602001015160f81c60f81b838380600101945081518110613cda57fe5b60200101907effffffffffffffffffffffffffffffffffffffffffffffffffffffffffffff1916908160001a9053508080600101915050613ca8565b82995050505050505050505095945050505050565b60008151835114613d3b57600080fd5b6000835190506000600682029050606081604051908082528060200260200182016040528015613d7a5781602001602082028038833980820191505090505b50905060008090505b83811015613f2057868181518110613d9757fe5b602002602001015160000151826000600684020181518110613db557fe5b602002602001018181525050868181518110613dcd57fe5b602002602001015160200151826001600684020181518110613deb57fe5b602002602001018181525050858181518110613e0357fe5b602002602001015160000151600160028110613e1b57fe5b6020020151826002600684020181518110613e3257fe5b602002602001018181525050858181518110613e4a57fe5b602002602001015160000151600060028110613e6257fe5b6020020151826003600684020181518110613e7957fe5b602002602001018181525050858181518110613e9157fe5b602002602001015160200151600160028110613ea957fe5b6020020151826004600684020181518110613ec057fe5b602002602001018181525050858181518110613ed857fe5b602002602001015160200151600060028110613ef057fe5b6020020151826005600684020181518110613f0757fe5b6020026020010181815250508080600101915050613d83565b50613f2961423b565b6000602082602086026020860160086107d05a03fa90508060008114613f4e57613f50565bfe5b5080613f5b57600080fd5b600082600060018110613f6a57fe5b602002015114159550505050505092915050565b600083831115829061402b576040517f08c379a00000000000000000000000000000000000000000000000000000000081526004018080602001828103825283818151815260200191508051906020019080838360005b83811015613ff0578082015181840152602081019050613fd5565b50505050905090810190601f16801561401d5780820380516001836020036101000a031916815260200191505b509250505060405180910390fd5b5060008385039050809150509392505050565b60405180606001604052806140516141b7565b815260200161405e614215565b815260200161406b6141b7565b81525090565b828054600181600116156101000203166002900490600052602060002090601f016020900481019282601f106140b257805160ff19168380011785556140e0565b828001600101855582156140e0579182015b828111156140df5782518255916020019190600101906140c4565b5b5090506140ed919061425d565b5090565b6040518060a001604052806141046141b7565b8152602001614111614215565b815260200161411e614215565b815260200161412b614215565b8152602001606081525090565b604051806040016040528060008152602001600081525090565b604051806060016040528060008152602001600073ffffffffffffffffffffffffffffffffffffffff1681526020016000151581525090565b8154818355818111156141b2578183600052602060002091820191016141b1919061425d565b5b505050565b604051806040016040528060008152602001600081525090565b6040518060600160405280600390602082028038833980820191505090505090565b6040518060800160405280600490602082028038833980820191505090505090565b6040518060400160405280614228614282565b8152602001614235614282565b81525090565b6040518060200160405280600190602082028038833980820191505090505090565b61427f91905b8082111561427b576000816000905550600101614263565b5090565b90565b604051806040016040528060029060208202803883398082019150509050509056fe4e6f7420656e6f75676874207065726d697373696f6e7320746f2065786563757465546f6b656e20657869737473206f722041646472657373206973206e6f742076616c69642143616c6c657220697320616c726561647920616e206f776e6572206f66207468697320746f6b656ea265627a7a72315820e58b36ccf26761ebb4ec6bd74623c8931c9455e6c748c501ee922a827a3a358e64736f6c6343000510003268747470733a2f2f73332d75732d776573742d322e616d617a6f6e6177732e636f6d2f756461636974792d626c6f636b636861696e2f63617073746f6e652f",
  "source": "pragma solidity >=0.4.21 <0.6.0;\n\n//  define a contract call to the zokrates generated solidity contract <Verifier> or <renamedVerifier>\nimport \"./verifier.sol\";\nimport \"./ERC721Mintable.sol\";\nimport \"openzeppelin-solidity/contracts/math/SafeMath.sol\";\n\n//  define another contract named SolnSquareVerifier that inherits from your ERC721Mintable class\ncontract SolnSquareVerifier is ERC721MintableComplete, Verifier {\n    //  define a solutions struct that can hold an index & an address\n    struct Solution {\n        uint256 index;\n        address addr;\n        bool exists;\n    }\n\n    //  define an array of the above struct\n    Solution[] private solutionList;\n    //  define a mapping to store unique solutions submitted\n    mapping(bytes32 => Solution) solutions;\n\n    // Create an event to emit when a solution is added\n    event SolutionAdded(uint256 index, address addr, bool exists);\n\n    modifier validTx(\n        uint256[2] memory a,\n        uint256[2][2] memory b,\n        uint256[2] memory c,\n        uint256[2] memory input\n    ) {\n        require(verifyTx(a, b, c, input), \"TX verification Failed\");\n        _;\n    }\n\n    function solutionAdd(bytes32 key, address verifyAddress) internal {\n        require(!solutions[key].exists, \"The key is unique\");\n        Solution memory solution = Solution(\n            solutionList.length + 1,\n            verifyAddress,\n            true\n        );\n        solutionList.push(solution);\n        solutions[key] = solution;\n        emit SolutionAdded(solution.index, verifyAddress, solution.exists);\n    }\n\n    //  Create a function to mint new NFT only after the solution has been verified\n    //  - make sure the solution is unique (has not been used before)\n    //  - make sure you handle metadata as well as tokenSuplly\n    function mint(\n        address to,\n        uint256 tokenId,\n        uint256[2] memory a,\n        uint256[2][2] memory b,\n        uint256[2] memory c,\n        uint256[2] memory inputs\n    ) public validTx(a, b, c, inputs) {\n        bytes32 key = keccak256(abi.encodePacked(a, b, c, inputs));\n\n        solutionAdd(key, msg.sender);\n        super.mint(to, tokenId);\n    }\n}\n",
  "sourcePath": "/workspaces/Blockchain-Capstone/eth-contracts/contracts/SolnSquareVerifier.sol",
  "compiler": {
    "name": "solc",
    "version": "0.5.16+commit.9c3226ce.Emscripten.clang"
  },
  "schemaVersion": "3.4.6",
  "updatedAt": "2022-03-30T01:54:00.217Z",
  "networkType": "ethereum",
  "devdoc": {
    "methods": {
      "isApprovedForAll(address,address)": {
        "details": "Tells whether an operator is approved by a given owner",
        "params": {
          "operator": "operator address which you want to query the approval of",
          "owner": "owner address which you want to query the approval of"
        },
        "return": "bool whether the given operator is approved by the given owner"
      },
      "setApprovalForAll(address,bool)": {
        "details": "Sets or unsets the approval of a given operator An operator is allowed to transfer all tokens of the sender on their behalf",
        "params": {
          "approved": "representing the status of the approval to be set",
          "to": "operator address to set the approval"
        }
      },
      "supportsInterface(bytes4)": {
        "details": "implement supportsInterface(bytes4) using a lookup table"
      },
      "tokenByIndex(uint256)": {
        "details": "Gets the token ID at a given index of all the tokens in this contract Reverts if the index is greater or equal to the total number of tokens",
        "params": {
          "index": "uint256 representing the index to be accessed of the tokens list"
        },
        "return": "uint256 token ID at the given index of the tokens list"
      },
      "tokenOfOwnerByIndex(address,uint256)": {
        "details": "Gets the token ID at a given index of the tokens list of the requested owner",
        "params": {
          "index": "uint256 representing the index to be accessed of the requested tokens list",
          "owner": "address owning the tokens list to be accessed"
        },
        "return": "uint256 token ID at the given index of the tokens list owned by the requested address"
      },
      "totalSupply()": {
        "details": "Gets the total amount of tokens stored by the contract",
        "return": "uint256 representing the total amount of tokens"
      }
    }
  },
  "userdoc": {
    "methods": {}
  }
}